{
  "contractName": "Vote2Block",
  "abi": [
    {
      "inputs": [
        {
          "internalType": "address",
          "name": "_ketuaPeneyelenggara",
          "type": "address"
        }
      ],
      "stateMutability": "nonpayable",
      "type": "constructor"
    },
    {
      "anonymous": false,
      "inputs": [
        {
          "indexed": false,
          "internalType": "uint256",
          "name": "_kandidatID",
          "type": "uint256"
        },
        {
          "indexed": false,
          "internalType": "uint256",
          "name": "_totalVote",
          "type": "uint256"
        },
        {
          "indexed": false,
          "internalType": "bytes32",
          "name": "_kandidatName",
          "type": "bytes32"
        },
        {
          "indexed": false,
          "internalType": "address",
          "name": "sender",
          "type": "address"
        }
      ],
      "name": "RegisterKandidat",
      "type": "event"
    },
    {
      "anonymous": false,
      "inputs": [
        {
          "indexed": false,
          "internalType": "address",
          "name": "_pemilihAddress",
          "type": "address"
        },
        {
          "indexed": false,
          "internalType": "uint256",
          "name": "_statusHakpilih",
          "type": "uint256"
        },
        {
          "indexed": false,
          "internalType": "bool",
          "name": "statusVoting",
          "type": "bool"
        }
      ],
      "name": "RegisterPemilih",
      "type": "event"
    },
    {
      "anonymous": false,
      "inputs": [
        {
          "indexed": false,
          "internalType": "address",
          "name": "_petugasAddress",
          "type": "address"
        },
        {
          "indexed": false,
          "internalType": "address",
          "name": "sender",
          "type": "address"
        }
      ],
      "name": "RegisterPetugas",
      "type": "event"
    },
    {
      "anonymous": false,
      "inputs": [
        {
          "indexed": false,
          "internalType": "address",
          "name": "_petugasAddress",
          "type": "address"
        },
        {
          "indexed": false,
          "internalType": "address",
          "name": "sender",
          "type": "address"
        }
      ],
      "name": "RemovePetugas",
      "type": "event"
    },
    {
      "anonymous": false,
      "inputs": [
        {
          "indexed": false,
          "internalType": "uint256",
          "name": "startRegister",
          "type": "uint256"
        },
        {
          "indexed": false,
          "internalType": "uint256",
          "name": "finisRegister",
          "type": "uint256"
        },
        {
          "indexed": false,
          "internalType": "uint256",
          "name": "startVoting",
          "type": "uint256"
        },
        {
          "indexed": false,
          "internalType": "uint256",
          "name": "finisVoting",
          "type": "uint256"
        }
      ],
      "name": "VotingTimeSet",
      "type": "event"
    },
    {
      "inputs": [
        {
          "internalType": "address",
          "name": "",
          "type": "address"
        }
      ],
      "name": "Petugas",
      "outputs": [
        {
          "internalType": "bool",
          "name": "",
          "type": "bool"
        }
      ],
      "stateMutability": "view",
      "type": "function",
      "constant": true
    },
    {
      "inputs": [
        {
          "internalType": "uint256",
          "name": "",
          "type": "uint256"
        }
      ],
      "name": "kandidat",
      "outputs": [
        {
          "internalType": "uint256",
          "name": "kandidatID",
          "type": "uint256"
        },
        {
          "internalType": "uint256",
          "name": "totalVote",
          "type": "uint256"
        },
        {
          "internalType": "bytes32",
          "name": "kandidatName",
          "type": "bytes32"
        }
      ],
      "stateMutability": "view",
      "type": "function",
      "constant": true
    },
    {
      "inputs": [
        {
          "internalType": "address",
          "name": "",
          "type": "address"
        }
      ],
      "name": "pemilih",
      "outputs": [
        {
          "internalType": "uint256",
          "name": "statusHakPilih",
          "type": "uint256"
        },
        {
          "internalType": "uint256",
          "name": "kandidatPilihan",
          "type": "uint256"
        },
        {
          "internalType": "bool",
          "name": "statusVoting",
          "type": "bool"
        }
      ],
      "stateMutability": "view",
      "type": "function",
      "constant": true
    },
    {
      "inputs": [
        {
          "internalType": "address",
          "name": "_petugasAddress",
          "type": "address"
        },
        {
          "internalType": "uint256",
          "name": "nonce",
          "type": "uint256"
        },
        {
          "internalType": "bytes",
          "name": "signature",
          "type": "bytes"
        }
      ],
      "name": "addPetugas",
      "outputs": [],
      "stateMutability": "nonpayable",
      "type": "function"
    },
    {
      "inputs": [
        {
          "internalType": "address",
          "name": "_petugasAddress",
          "type": "address"
        },
        {
          "internalType": "uint256",
          "name": "nonce",
          "type": "uint256"
        },
        {
          "internalType": "bytes",
          "name": "signature",
          "type": "bytes"
        }
      ],
      "name": "removePetugas",
      "outputs": [],
      "stateMutability": "nonpayable",
      "type": "function"
    },
    {
      "inputs": [
        {
          "internalType": "uint256",
          "name": "_startRegisterTimeStamp",
          "type": "uint256"
        },
        {
          "internalType": "uint256",
          "name": "_finisRegisterTimeStamp",
          "type": "uint256"
        },
        {
          "internalType": "uint256",
          "name": "_startVotingEvent",
          "type": "uint256"
        },
        {
          "internalType": "uint256",
          "name": "_finisVotingEvent",
          "type": "uint256"
        },
        {
          "internalType": "bytes",
          "name": "signature",
          "type": "bytes"
        }
      ],
      "name": "setVotingTimestampEvent",
      "outputs": [],
      "stateMutability": "nonpayable",
      "type": "function"
    },
    {
      "inputs": [
        {
          "internalType": "uint256",
          "name": "_kandidatId",
          "type": "uint256"
        },
        {
          "internalType": "uint256",
          "name": "nonce",
          "type": "uint256"
        },
        {
          "internalType": "uint256",
          "name": "_liveTimestamp",
          "type": "uint256"
        },
        {
          "internalType": "bytes32",
          "name": "_kandidatName",
          "type": "bytes32"
        },
        {
          "internalType": "bytes",
          "name": "signature",
          "type": "bytes"
        }
      ],
      "name": "registerKandidat",
      "outputs": [],
      "stateMutability": "nonpayable",
      "type": "function"
    },
    {
      "inputs": [
        {
          "internalType": "address",
          "name": "_pemilihAddress",
          "type": "address"
        },
        {
          "internalType": "uint256",
          "name": "nonce",
          "type": "uint256"
        },
        {
          "internalType": "uint256",
          "name": "_liveTimestamp",
          "type": "uint256"
        },
        {
          "internalType": "bytes",
          "name": "signature",
          "type": "bytes"
        }
      ],
      "name": "registerPemilih",
      "outputs": [],
      "stateMutability": "nonpayable",
      "type": "function"
    },
    {
      "inputs": [
        {
          "internalType": "uint256",
          "name": "_kandidatID",
          "type": "uint256"
        },
        {
          "internalType": "uint256",
          "name": "nonce",
          "type": "uint256"
        },
        {
          "internalType": "uint256",
          "name": "_liveTimestamp",
          "type": "uint256"
        },
        {
          "internalType": "bytes",
          "name": "signature",
          "type": "bytes"
        }
      ],
      "name": "Voting",
      "outputs": [],
      "stateMutability": "nonpayable",
      "type": "function"
    },
    {
      "inputs": [],
      "name": "kandidatTerpilih",
      "outputs": [
        {
          "internalType": "bytes32",
          "name": "kandidatName_",
          "type": "bytes32"
        }
      ],
      "stateMutability": "view",
      "type": "function",
      "constant": true
    },
    {
      "inputs": [],
      "name": "getTotalKandidat",
      "outputs": [
        {
          "internalType": "uint256",
          "name": "",
          "type": "uint256"
        }
      ],
      "stateMutability": "view",
      "type": "function",
      "constant": true
    },
    {
      "inputs": [
        {
          "internalType": "uint256",
          "name": "kandidatIndex",
          "type": "uint256"
        }
      ],
      "name": "getKandidatData",
      "outputs": [
        {
          "internalType": "uint256",
          "name": "",
          "type": "uint256"
        },
        {
          "internalType": "uint256",
          "name": "",
          "type": "uint256"
        },
        {
          "internalType": "bytes32",
          "name": "",
          "type": "bytes32"
        }
      ],
      "stateMutability": "view",
      "type": "function",
      "constant": true
    }
  ],
  "bytecode": "0x608060405234801561001057600080fd5b5060405161176d38038061176d8339818101604052602081101561003357600080fd5b8101908080519060200190929190505050806000806101000a81548173ffffffffffffffffffffffffffffffffffffffff021916908373ffffffffffffffffffffffffffffffffffffffff160217905550506116d9806100946000396000f3fe608060405234801561001057600080fd5b50600436106100b45760003560e01c8063c844b03411610071578063c844b0341461043c578063cec3a53a1461051f578063d7dae89914610579578063da12573014610652578063ed4577fc14610670578063fae578cc146106c0576100b4565b806301caa922146100b957806321cb432d1461019e578063657c3ef1146101bc5780638443dca51461020c578063b96afc18146102f1578063c5d7123014610359575b600080fd5b61019c600480360360608110156100cf57600080fd5b81019080803573ffffffffffffffffffffffffffffffffffffffff169060200190929190803590602001909291908035906020019064010000000081111561011657600080fd5b82018360208201111561012857600080fd5b8035906020019184600183028401116401000000008311171561014a57600080fd5b91908080601f016020809104026020016040519081016040528093929190818152602001838380828437600081840152601f19601f8201169050808301925050505050505091929192905050506107af565b005b6101a6610933565b6040518082815260200191505060405180910390f35b6101e8600480360360208110156101d257600080fd5b8101908080359060200190929190505050610960565b60405180848152602001838152602001828152602001935050505060405180910390f35b6102ef6004803603606081101561022257600080fd5b81019080803573ffffffffffffffffffffffffffffffffffffffff169060200190929190803590602001909291908035906020019064010000000081111561026957600080fd5b82018360208201111561027b57600080fd5b8035906020019184600183028401116401000000008311171561029d57600080fd5b91908080601f016020809104026020016040519081016040528093929190818152602001838380828437600081840152601f19601f820116905080830192505050505050509192919290505050610997565b005b6103336004803603602081101561030757600080fd5b81019080803573ffffffffffffffffffffffffffffffffffffffff169060200190929190505050610b1a565b604051808481526020018381526020018215158152602001935050505060405180910390f35b61043a600480360360a081101561036f57600080fd5b8101908080359060200190929190803590602001909291908035906020019092919080359060200190929190803590602001906401000000008111156103b457600080fd5b8201836020820111156103c657600080fd5b803590602001918460018302840111640100000000831117156103e857600080fd5b91908080601f016020809104026020016040519081016040528093929190818152602001838380828437600081840152601f19601f820116905080830192505050505050509192919290505050610b51565b005b61051d600480360360a081101561045257600080fd5b81019080803590602001909291908035906020019092919080359060200190929190803590602001909291908035906020019064010000000081111561049757600080fd5b8201836020820111156104a957600080fd5b803590602001918460018302840111640100000000831117156104cb57600080fd5b91908080601f016020809104026020016040519081016040528093929190818152602001838380828437600081840152601f19601f820116905080830192505050505050509192919290505050610d44565b005b6105616004803603602081101561053557600080fd5b81019080803573ffffffffffffffffffffffffffffffffffffffff169060200190929190505050610e6f565b60405180821515815260200191505060405180910390f35b6106506004803603608081101561058f57600080fd5b81019080803590602001909291908035906020019092919080359060200190929190803590602001906401000000008111156105ca57600080fd5b8201836020820111156105dc57600080fd5b803590602001918460018302840111640100000000831117156105fe57600080fd5b91908080601f016020809104026020016040519081016040528093929190818152602001838380828437600081840152601f19601f820116905080830192505050505050509192919290505050610e8f565b005b61065a611090565b6040518082815260200191505060405180910390f35b61069c6004803603602081101561068657600080fd5b810190808035906020019092919050505061109d565b60405180848152602001838152602001828152602001935050505060405180910390f35b6107ad600480360360808110156106d657600080fd5b81019080803573ffffffffffffffffffffffffffffffffffffffff16906020019092919080359060200190929190803590602001909291908035906020019064010000000081111561072757600080fd5b82018360208201111561073957600080fd5b8035906020019184600183028401116401000000008311171561075b57600080fd5b91908080601f016020809104026020016040519081016040528093929190818152602001838380828437600081840152601f19601f82011690508083019250505050505050919291929050505061110c565b005b60006108018484604051602001808373ffffffffffffffffffffffffffffffffffffffff1660601b815260140182815260200192505050604051602081830303815290604052805190602001206114a4565b9050600061080f82846114fc565b905060008054906101000a900473ffffffffffffffffffffffffffffffffffffffff1673ffffffffffffffffffffffffffffffffffffffff168173ffffffffffffffffffffffffffffffffffffffff161461086957600080fd5b6000600160008773ffffffffffffffffffffffffffffffffffffffff1673ffffffffffffffffffffffffffffffffffffffff16815260200190815260200160002060006101000a81548160ff0219169083151502179055507fa392307238e13b99e8ce5c88475b32d69c121390323cc9010a32ab43617b10468582604051808373ffffffffffffffffffffffffffffffffffffffff1681526020018273ffffffffffffffffffffffffffffffffffffffff1681526020019250505060405180910390a15050505050565b6000600261093f611580565b8154811061094957fe5b906000526020600020906003020160020154905090565b6002818154811061096d57fe5b90600052602060002090600302016000915090508060000154908060010154908060020154905083565b60006109e98484604051602001808373ffffffffffffffffffffffffffffffffffffffff1660601b815260140182815260200192505050604051602081830303815290604052805190602001206114a4565b905060006109f782846114fc565b905060008054906101000a900473ffffffffffffffffffffffffffffffffffffffff1673ffffffffffffffffffffffffffffffffffffffff168173ffffffffffffffffffffffffffffffffffffffff1614610a5157600080fd5b60018060008773ffffffffffffffffffffffffffffffffffffffff1673ffffffffffffffffffffffffffffffffffffffff16815260200190815260200160002060006101000a81548160ff0219169083151502179055507fa623da1696ed3a0de2a4db6fecd00b894fd4a8e223dfccafa18926ffd38e774e8582604051808373ffffffffffffffffffffffffffffffffffffffff1681526020018273ffffffffffffffffffffffffffffffffffffffff1681526020019250505060405180910390a15050505050565b60036020528060005260406000206000915090508060000154908060010154908060020160009054906101000a900460ff16905083565b82610b5a6115ff565b806000015182118015610b705750806020015182115b610bc5576040517f08c379a00000000000000000000000000000000000000000000000000000000081526004018080602001828103825260318152602001806116736031913960400191505060405180910390fd5b6000610c06888689604051602001808481526020018381526020018281526020019350505050604051602081830303815290604052805190602001206114a4565b90506000610c1482866114fc565b9050600160008273ffffffffffffffffffffffffffffffffffffffff1673ffffffffffffffffffffffffffffffffffffffff16815260200190815260200160002060009054906101000a900460ff16610c6c57600080fd5b600260405180606001604052808b81526020016000815260200188815250908060018154018082558091505060019003906000526020600020906003020160009091909190915060008201518160000155602082015181600101556040820151816002015550507fc66bcbe13027ad75e39e0c01012b117bd4090ec89074d6e87c1a0a9692685e518960008884604051808581526020018481526020018381526020018273ffffffffffffffffffffffffffffffffffffffff16815260200194505050505060405180910390a1505050505050505050565b6000610d8d8686868660405160200180858152602001848152602001838152602001828152602001945050505050604051602081830303815290604052805190602001206114a4565b90506000610d9b82846114fc565b905060008054906101000a900473ffffffffffffffffffffffffffffffffffffffff1673ffffffffffffffffffffffffffffffffffffffff168173ffffffffffffffffffffffffffffffffffffffff1614610df557600080fd5b604051806080016040528088815260200187815260200186815260200185815250507fa941a8d45e5f36c4ad6d384f5e93877fc58e6952e792a606b179587d1f6c32e1878787876040518085815260200184815260200183815260200182815260200194505050505060405180910390a150505050505050565b60016020528060005260406000206000915054906101000a900460ff1681565b81610e986115ff565b806040015182118015610eae5750806060015182115b610eb757600080fd5b6000610ef087876040516020018083815260200182815260200192505050604051602081830303815290604052805190602001206114a4565b90506000610efe82866114fc565b90506000600360008373ffffffffffffffffffffffffffffffffffffffff1673ffffffffffffffffffffffffffffffffffffffff1681526020019081526020016000209050600081600001541415610fbe576040517f08c379a00000000000000000000000000000000000000000000000000000000081526004018080602001828103825260208152602001807f50656d696c696820746964616b206d656d696c696b692068616b2070696c696881525060200191505060405180910390fd5b8060020160009054906101000a900460ff1615611026576040517f08c379a00000000000000000000000000000000000000000000000000000000081526004018080602001828103825260268152602001806116286026913960400191505060405180910390fd5b60018160020160006101000a81548160ff021916908315150217905550888160010181905550600060018a03905081600001546002828154811061106657fe5b90600052602060002090600302016001016000828254019250508190555050505050505050505050565b6000600280549050905090565b6000806000600284815481106110af57fe5b906000526020600020906003020160000154600285815481106110ce57fe5b906000526020600020906003020160010154600286815481106110ed57fe5b9060005260206000209060030201600201549250925092509193909250565b816111156115ff565b80600001518211801561112b5750806020015182115b611180576040517f08c379a00000000000000000000000000000000000000000000000000000000081526004018080602001828103825260318152602001806116736031913960400191505060405180910390fd5b60006111d28787604051602001808373ffffffffffffffffffffffffffffffffffffffff1660601b815260140182815260200192505050604051602081830303815290604052805190602001206114a4565b905060006111e082866114fc565b9050600160008273ffffffffffffffffffffffffffffffffffffffff1673ffffffffffffffffffffffffffffffffffffffff16815260200190815260200160002060009054906101000a900460ff1661123857600080fd5b600360008973ffffffffffffffffffffffffffffffffffffffff1673ffffffffffffffffffffffffffffffffffffffff16815260200190815260200160002060020160009054906101000a900460ff16156112de576040517f08c379a000000000000000000000000000000000000000000000000000000000815260040180806020018281038252602581526020018061164e6025913960400191505060405180910390fd5b6000600360008a73ffffffffffffffffffffffffffffffffffffffff1673ffffffffffffffffffffffffffffffffffffffff1681526020019081526020016000206000015414611396576040517f08c379a00000000000000000000000000000000000000000000000000000000081526004018080602001828103825260208152602001807f50656d696c69682062656c756d206d656d696c696b692068616b2070696c696881525060200191505060405180910390fd5b6001600360008a73ffffffffffffffffffffffffffffffffffffffff1673ffffffffffffffffffffffffffffffffffffffff168152602001908152602001600020600001819055506000600360008a73ffffffffffffffffffffffffffffffffffffffff1673ffffffffffffffffffffffffffffffffffffffff16815260200190815260200160002060020160006101000a81548160ff0219169083151502179055507ff6c373ebb5e124f37b69b5a212cad0416b17b14d64363002e2cb265e2bf2622e8860016000604051808473ffffffffffffffffffffffffffffffffffffffff1681526020018381526020018215158152602001935050505060405180910390a15050505050505050565b60008160405160200180807f19457468657265756d205369676e6564204d6573736167653a0a333200000000815250601c01828152602001915050604051602081830303815290604052805190602001209050919050565b60008060008061150b856115cd565b92509250925060018684848460405160008152602001604052604051808581526020018460ff1681526020018381526020018281526020019450505050506020604051602081039080840390855afa15801561156b573d6000803e3d6000fd5b50505060206040510351935050505092915050565b6000806000905060005b6002805490508110156115c857600281815481106115a457fe5b9060005260206000209060030201600101549150809250808060010191505061158a565b505090565b600080600060418451146115e057600080fd5b6020840151915060408401519050606084015160001a92509193909250565b604051806080016040528060008152602001600081526020016000815260200160008152509056fe50656d696c6968207375646168206d656e6767756e616b616e2068616b2070696c69686e796150656d696c6968207375646168206d656d626572696b616e2068616b2070696c69686e796157616b74752072656769737465722062656c756d206469206d756c61692061746175207375646168206265726b61686972a2646970667358221220072dd4129176a33f7f7661a9829777f5de535e179cd71cd353e1d9aeaac0eec264736f6c63430007000033",
  "immutableReferences": {},
  "source": "// SPDX-License-Identifier:MIT\npragma solidity 0.7.0;\n\ncontract Vote2Block {\n    address ketuaPenyelenggara;\n    mapping(address => bool) public Petugas;\n\n    // event\n    event RegisterPetugas(address _petugasAddress, address sender);\n    event RemovePetugas(address _petugasAddress, address sender);\n    event RegisterKandidat(\n        uint256 _kandidatID, \n        uint256 _totalVote, \n        bytes32 _kandidatName, \n        address sender\n    );\n    event RegisterPemilih(address _pemilihAddress, uint256 _statusHakpilih, bool statusVoting);\n    event VotingTimeSet(\n        uint256 startRegister,\n        uint256 finisRegister,\n        uint256 startVoting,\n        uint256 finisVoting\n    );\n\n    // modifier list\n    modifier onlyRegisterStart(uint256 _liveTimestamp) {\n        VotingTimeStamp memory vt;\n        require(\n            _liveTimestamp > vt.startRegisterTime && _liveTimestamp > vt.finishRegisterTime,\n            \"Waktu register belum di mulai atau sudah berkahir\"\n        );\n        _;\n    }\n    \n    modifier onlyVotingStart(uint256 _liveTimestamp) {\n        VotingTimeStamp memory vt;\n        require(\n            _liveTimestamp > vt.startVotingTime && _liveTimestamp > vt.finishVotingTime\n        );\n        _;\n    }\n\n    // struct data list\n    struct VotingTimeStamp {\n        uint256 startRegisterTime;\n        uint256 finishRegisterTime;\n        uint256 startVotingTime;\n        uint256 finishVotingTime;\n    }\n\n    struct Kandidat {\n        uint256 kandidatID;\n        uint256 totalVote;\n        bytes32 kandidatName;\n    }\n\n    struct Pemilih {\n        uint256 statusHakPilih;\n        uint256 kandidatPilihan;\n        bool statusVoting;\n    }\n\n    constructor(address _ketuaPeneyelenggara) {\n        ketuaPenyelenggara = _ketuaPeneyelenggara;\n    }\n    Kandidat[] public kandidat;\n    mapping(address => Pemilih) public pemilih;\n\n    // Ketua Penyelenggara\n    function addPetugas(address _petugasAddress, uint256 nonce, bytes memory signature) public {\n        bytes32 message = prefixed(keccak256(abi.encodePacked(_petugasAddress, nonce)));\n        address recoverAddress = recoverSigner(message, signature);\n        require(recoverAddress == ketuaPenyelenggara);\n        Petugas[_petugasAddress] = true;\n        emit RegisterPetugas(_petugasAddress, recoverAddress);\n    }\n\n    function removePetugas(address _petugasAddress, uint256 nonce, bytes memory signature) public {\n        bytes32 message = prefixed(keccak256(abi.encodePacked(_petugasAddress, nonce)));\n        address recoverAddress = recoverSigner(message, signature);\n        require(recoverAddress == ketuaPenyelenggara);\n        Petugas[_petugasAddress] = false;\n        emit RemovePetugas(_petugasAddress, recoverAddress);\n    }\n\n    function setVotingTimestampEvent(\n        uint256 _startRegisterTimeStamp,\n        uint256 _finisRegisterTimeStamp,\n        uint256 _startVotingEvent,\n        uint256 _finisVotingEvent,\n        bytes memory signature\n    ) public {\n        //pass\n        bytes32 message = prefixed(keccak256(abi.encodePacked(\n            _startRegisterTimeStamp,\n            _finisRegisterTimeStamp,\n            _startVotingEvent,\n            _finisVotingEvent\n        )));\n        address recoverAddress = recoverSigner(message, signature);\n        require(recoverAddress == ketuaPenyelenggara);\n        VotingTimeStamp(\n            _startRegisterTimeStamp,\n            _finisRegisterTimeStamp,\n            _startVotingEvent,\n            _finisVotingEvent\n        );\n        emit VotingTimeSet(\n            _startRegisterTimeStamp,\n            _finisRegisterTimeStamp,\n            _startVotingEvent,\n            _finisVotingEvent\n        );\n    }\n\n    // petugas\n    function registerKandidat(\n        uint256 _kandidatId,\n        uint256 nonce,\n        uint256 _liveTimestamp,\n        bytes32 _kandidatName,\n        bytes memory signature\n    ) public onlyRegisterStart(_liveTimestamp){\n        bytes32 message = prefixed(keccak256(abi.encodePacked(\n            _kandidatId,\n            _kandidatName,\n            nonce\n        )));\n        address recoverAddress = recoverSigner(message, signature);\n        require(Petugas[recoverAddress]);\n        kandidat.push(Kandidat({\n            kandidatID:_kandidatId,\n            totalVote:0,\n            kandidatName:_kandidatName\n        }));\n        emit RegisterKandidat(\n            _kandidatId,\n            0,\n            _kandidatName,\n            recoverAddress\n        );\n    }\n\n    function registerPemilih(\n        address _pemilihAddress,\n        uint256 nonce,\n        uint256 _liveTimestamp,\n        bytes memory signature\n    ) public onlyRegisterStart(_liveTimestamp){\n            bytes32 message = prefixed(\n                keccak256(abi.encodePacked(_pemilihAddress, nonce))\n            );\n            address recoverAddress = recoverSigner(message, signature);\n            require(Petugas[recoverAddress]);\n            require(\n                !pemilih[_pemilihAddress].statusVoting,\n                \"Pemilih sudah memberikan hak pilihnya\"\n            );\n            require(\n                pemilih[_pemilihAddress].statusHakPilih == 0,\n                \"Pemilih belum memiliki hak pilih\"\n            );\n            pemilih[_pemilihAddress].statusHakPilih = 1;\n            pemilih[_pemilihAddress].statusVoting = false;\n            emit RegisterPemilih(\n                _pemilihAddress,\n                1,\n                false\n            );\n        }\n\n    function Voting(\n        uint256 _kandidatID,\n        uint256 nonce,\n        uint256 _liveTimestamp,\n        bytes memory signature\n    ) public onlyVotingStart(_liveTimestamp) {\n        bytes32 message = prefixed(\n            keccak256(abi.encodePacked(_kandidatID,nonce))\n        );\n        address recoverAddress = recoverSigner(message, signature);\n        Pemilih storage pm = pemilih[recoverAddress];\n        require(\n            pm.statusHakPilih != 0,\n            \"Pemilih tidak memiliki hak pilih\"\n        );\n        require(\n            !pm.statusVoting,\n            \"Pemilih sudah menggunakan hak pilihnya\"\n        );\n        pm.statusVoting = true;\n        pm.kandidatPilihan = _kandidatID;\n        uint indexKandidat = _kandidatID - 1;\n        kandidat[indexKandidat].totalVote += pm.statusHakPilih;\n    }\n\n    function _hitungTotalSuara() internal view returns(uint256 totalSuara_) {\n        uint totalSuaraKandidat = 0;\n        for (uint p = 0; p < kandidat.length; p++) {\n            totalSuaraKandidat = kandidat[p].totalVote;\n            totalSuara_ = p;\n        }\n    }\n\n    function kandidatTerpilih() public view returns(bytes32 kandidatName_) {\n        kandidatName_ = kandidat[_hitungTotalSuara()].kandidatName;\n    }\n\n    function getTotalKandidat() public view returns(uint256) {\n        return kandidat.length;\n    }\n\n    function getKandidatData(uint256 kandidatIndex) public view returns(uint256, uint256, bytes32) {\n        return(kandidat[kandidatIndex].kandidatID,kandidat[kandidatIndex].totalVote,kandidat[kandidatIndex].kandidatName);\n    }\n\n    // Handle signature data dari user\n    function splitSignature(bytes memory signature) internal pure returns(\n        uint8 v,\n        bytes32 r,\n        bytes32 s\n    ) {\n        require(signature.length == 65);\n        assembly {\n            r := mload(add(signature, 32))\n            s := mload(add(signature, 64))\n            v := byte(0, mload(add(signature, 96)))\n        }\n        return (v, r, s);\n    }\n\n    function recoverSigner(bytes32 message, bytes memory signature) internal pure returns(address) {\n        (uint8 v, bytes32 r, bytes32 s) = splitSignature(signature);\n        return ecrecover(message, v, r, s);\n    }\n\n    function prefixed(bytes32 hash) internal pure returns(bytes32) {\n        return keccak256(\n            abi.encodePacked(\"\\x19Ethereum Signed Message:\\n32\", hash)\n        );\n    }\n}",
  "sourcePath": "/home/yafiabiyyu/Documents/Project/SKRIPSI/vote2block-smart-contract-javascript/contracts/Vote2Block.sol",
  "compiler": {
    "name": "solc",
    "version": "0.7.0+commit.9e61f92b.Emscripten.clang"
  },
  "schemaVersion": "3.3.3",
  "updatedAt": "2021-04-25T20:07:49.768Z",
  "networkType": "ethereum",
  "devdoc": {
    "kind": "dev",
    "methods": {},
    "version": 1
  },
  "userdoc": {
    "kind": "user",
    "methods": {},
    "version": 1
  }
}