{
  "contractName": "Vote2Block",
  "abi": [
    {
      "inputs": [
        {
          "internalType": "address",
          "name": "_adminAddress",
          "type": "address"
        }
      ],
      "stateMutability": "nonpayable",
      "type": "constructor"
    },
    {
      "anonymous": false,
      "inputs": [
        {
          "indexed": false,
          "internalType": "uint256",
          "name": "_kandidatID",
          "type": "uint256"
        },
        {
          "indexed": false,
          "internalType": "uint256",
          "name": "_totalVote",
          "type": "uint256"
        },
        {
          "indexed": false,
          "internalType": "bytes32",
          "name": "_kandidatName",
          "type": "bytes32"
        },
        {
          "indexed": false,
          "internalType": "address",
          "name": "_ownerAddress",
          "type": "address"
        }
      ],
      "name": "RegisterKandidat",
      "type": "event"
    },
    {
      "anonymous": false,
      "inputs": [
        {
          "indexed": false,
          "internalType": "address",
          "name": "_pemilihAddress",
          "type": "address"
        },
        {
          "indexed": false,
          "internalType": "uint256",
          "name": "_statusHakPilih",
          "type": "uint256"
        },
        {
          "indexed": false,
          "internalType": "bool",
          "name": "statusVoting",
          "type": "bool"
        },
        {
          "indexed": false,
          "internalType": "address",
          "name": "_ownerAddress",
          "type": "address"
        }
      ],
      "name": "RegisterPemilih",
      "type": "event"
    },
    {
      "anonymous": false,
      "inputs": [
        {
          "indexed": true,
          "internalType": "address",
          "name": "voterAddress",
          "type": "address"
        },
        {
          "indexed": false,
          "internalType": "uint256",
          "name": "kandidatID",
          "type": "uint256"
        },
        {
          "indexed": false,
          "internalType": "bool",
          "name": "statusVoting",
          "type": "bool"
        }
      ],
      "name": "Voted",
      "type": "event"
    },
    {
      "anonymous": false,
      "inputs": [
        {
          "indexed": false,
          "internalType": "uint256",
          "name": "_registerstart",
          "type": "uint256"
        },
        {
          "indexed": false,
          "internalType": "uint256",
          "name": "_registerfinis",
          "type": "uint256"
        },
        {
          "indexed": false,
          "internalType": "uint256",
          "name": "_votingstart",
          "type": "uint256"
        },
        {
          "indexed": false,
          "internalType": "uint256",
          "name": "_votingfinis",
          "type": "uint256"
        },
        {
          "indexed": false,
          "internalType": "address",
          "name": "_ownerAddress",
          "type": "address"
        }
      ],
      "name": "VotingTime",
      "type": "event"
    },
    {
      "inputs": [
        {
          "internalType": "uint256",
          "name": "",
          "type": "uint256"
        }
      ],
      "name": "kandidat",
      "outputs": [
        {
          "internalType": "uint256",
          "name": "kandidatID",
          "type": "uint256"
        },
        {
          "internalType": "uint256",
          "name": "totalVote",
          "type": "uint256"
        },
        {
          "internalType": "bytes32",
          "name": "kandidatName",
          "type": "bytes32"
        }
      ],
      "stateMutability": "view",
      "type": "function",
      "constant": true
    },
    {
      "inputs": [
        {
          "internalType": "address",
          "name": "",
          "type": "address"
        }
      ],
      "name": "pemilihData",
      "outputs": [
        {
          "internalType": "uint256",
          "name": "hakPilih",
          "type": "uint256"
        },
        {
          "internalType": "uint256",
          "name": "kandidatPilihan",
          "type": "uint256"
        },
        {
          "internalType": "bool",
          "name": "votingStatus",
          "type": "bool"
        }
      ],
      "stateMutability": "view",
      "type": "function",
      "constant": true
    },
    {
      "inputs": [
        {
          "internalType": "uint256",
          "name": "_registerstart",
          "type": "uint256"
        },
        {
          "internalType": "uint256",
          "name": "_registerfinis",
          "type": "uint256"
        },
        {
          "internalType": "uint256",
          "name": "_votingstart",
          "type": "uint256"
        },
        {
          "internalType": "uint256",
          "name": "_votingfinis",
          "type": "uint256"
        },
        {
          "internalType": "uint256",
          "name": "nonce",
          "type": "uint256"
        },
        {
          "internalType": "bytes",
          "name": "signature",
          "type": "bytes"
        }
      ],
      "name": "SetupTimedata",
      "outputs": [],
      "stateMutability": "nonpayable",
      "type": "function"
    },
    {
      "inputs": [
        {
          "internalType": "uint256",
          "name": "_kandidatID",
          "type": "uint256"
        },
        {
          "internalType": "uint256",
          "name": "nonce",
          "type": "uint256"
        },
        {
          "internalType": "uint256",
          "name": "_livetime",
          "type": "uint256"
        },
        {
          "internalType": "bytes32",
          "name": "_kandidatName",
          "type": "bytes32"
        },
        {
          "internalType": "bytes",
          "name": "signature",
          "type": "bytes"
        }
      ],
      "name": "KandidatRegister",
      "outputs": [],
      "stateMutability": "nonpayable",
      "type": "function"
    },
    {
      "inputs": [
        {
          "internalType": "address",
          "name": "_pemilihAddress",
          "type": "address"
        },
        {
          "internalType": "uint256",
          "name": "nonce",
          "type": "uint256"
        },
        {
          "internalType": "uint256",
          "name": "_livetime",
          "type": "uint256"
        },
        {
          "internalType": "bytes",
          "name": "signature",
          "type": "bytes"
        }
      ],
      "name": "PemilihRegister",
      "outputs": [],
      "stateMutability": "nonpayable",
      "type": "function"
    },
    {
      "inputs": [
        {
          "internalType": "uint256",
          "name": "_kandidatID",
          "type": "uint256"
        },
        {
          "internalType": "uint256",
          "name": "nonce",
          "type": "uint256"
        },
        {
          "internalType": "uint256",
          "name": "_livetime",
          "type": "uint256"
        },
        {
          "internalType": "bytes",
          "name": "signature",
          "type": "bytes"
        }
      ],
      "name": "Voting",
      "outputs": [],
      "stateMutability": "nonpayable",
      "type": "function"
    },
    {
      "inputs": [
        {
          "internalType": "uint256",
          "name": "_livetime",
          "type": "uint256"
        }
      ],
      "name": "KandidatTerpilih",
      "outputs": [
        {
          "internalType": "bytes32",
          "name": "kandidatName_",
          "type": "bytes32"
        }
      ],
      "stateMutability": "view",
      "type": "function",
      "constant": true
    },
    {
      "inputs": [
        {
          "internalType": "address",
          "name": "_pemilihAddress",
          "type": "address"
        }
      ],
      "name": "GetPemilihData",
      "outputs": [
        {
          "internalType": "uint256",
          "name": "",
          "type": "uint256"
        },
        {
          "internalType": "uint256",
          "name": "",
          "type": "uint256"
        },
        {
          "internalType": "bool",
          "name": "",
          "type": "bool"
        }
      ],
      "stateMutability": "view",
      "type": "function",
      "constant": true
    },
    {
      "inputs": [],
      "name": "GetVotingTimeData",
      "outputs": [
        {
          "internalType": "uint256",
          "name": "",
          "type": "uint256"
        },
        {
          "internalType": "uint256",
          "name": "",
          "type": "uint256"
        },
        {
          "internalType": "uint256",
          "name": "",
          "type": "uint256"
        },
        {
          "internalType": "uint256",
          "name": "",
          "type": "uint256"
        }
      ],
      "stateMutability": "view",
      "type": "function",
      "constant": true
    },
    {
      "inputs": [],
      "name": "GetTotalKandidat",
      "outputs": [
        {
          "internalType": "uint256",
          "name": "",
          "type": "uint256"
        }
      ],
      "stateMutability": "view",
      "type": "function",
      "constant": true
    },
    {
      "inputs": [
        {
          "internalType": "uint256",
          "name": "kandidatIndex",
          "type": "uint256"
        }
      ],
      "name": "GetKandidatData",
      "outputs": [
        {
          "internalType": "uint256",
          "name": "",
          "type": "uint256"
        },
        {
          "internalType": "uint256",
          "name": "",
          "type": "uint256"
        }
      ],
      "stateMutability": "view",
      "type": "function",
      "constant": true
    }
  ],
  "bytecode": "0x608060405234801561001057600080fd5b506040516116c33803806116c38339818101604052602081101561003357600080fd5b8101908080519060200190929190505050806000806101000a81548173ffffffffffffffffffffffffffffffffffffffff021916908373ffffffffffffffffffffffffffffffffffffffff1602179055505061162f806100946000396000f3fe608060405234801561001057600080fd5b50600436106100a95760003560e01c80638a2b6faa116100715780638a2b6faa146103045780638ae940e0146103f3578063a0d90cbf146104d6578063c472344114610518578063c6aaea451461054b578063d7dae89914610569576100a9565b80630f4686b0146100ae578063541263de14610116578063657c3ef11461015f578063670ee347146101af57806372c7794614610217575b600080fd5b6100f0600480360360208110156100c457600080fd5b81019080803573ffffffffffffffffffffffffffffffffffffffff169060200190929190505050610642565b604051808481526020018381526020018215158152602001935050505060405180910390f35b6101426004803603602081101561012c57600080fd5b8101908080359060200190929190505050610679565b604051808381526020018281526020019250505060405180910390f35b61018b6004803603602081101561017557600080fd5b81019080803590602001909291905050506106c3565b60405180848152602001838152602001828152602001935050505060405180910390f35b6101f1600480360360208110156101c557600080fd5b81019080803573ffffffffffffffffffffffffffffffffffffffff1690602001909291905050506106fa565b604051808481526020018381526020018215158152602001935050505060405180910390f35b610302600480360360c081101561022d57600080fd5b8101908080359060200190929190803590602001909291908035906020019092919080359060200190929190803590602001909291908035906020019064010000000081111561027c57600080fd5b82018360208201111561028e57600080fd5b803590602001918460018302840111640100000000831117156102b057600080fd5b91908080601f016020809104026020016040519081016040528093929190818152602001838380828437600081840152601f19601f8201169050808301925050505050505091929192905050506107e2565b005b6103f16004803603608081101561031a57600080fd5b81019080803573ffffffffffffffffffffffffffffffffffffffff16906020019092919080359060200190929190803590602001909291908035906020019064010000000081111561036b57600080fd5b82018360208201111561037d57600080fd5b8035906020019184600183028401116401000000008311171561039f57600080fd5b91908080601f016020809104026020016040519081016040528093929190818152602001838380828437600081840152601f19601f820116905080830192505050505050509192919290505050610960565b005b6104d4600480360360a081101561040957600080fd5b81019080803590602001909291908035906020019092919080359060200190929190803590602001909291908035906020019064010000000081111561044e57600080fd5b82018360208201111561046057600080fd5b8035906020019184600183028401116401000000008311171561048257600080fd5b91908080601f016020809104026020016040519081016040528093929190818152602001838380828437600081840152601f19601f820116905080830192505050505050509192919290505050610d4a565b005b610502600480360360208110156104ec57600080fd5b8101908080359060200190929190505050610f54565b6040518082815260200191505060405180910390f35b61052061108a565b6040518085815260200184815260200183815260200182815260200194505050505060405180910390f35b6105536110b5565b6040518082815260200191505060405180910390f35b6106406004803603608081101561057f57600080fd5b81019080803590602001909291908035906020019092919080359060200190929190803590602001906401000000008111156105ba57600080fd5b8201836020820111156105cc57600080fd5b803590602001918460018302840111640100000000831117156105ee57600080fd5b91908080601f016020809104026020016040519081016040528093929190818152602001838380828437600081840152601f19601f8201169050808301925050505050505091929192905050506110c2565b005b60066020528060005260406000206000915090508060000154908060010154908060020160009054906101000a900460ff16905083565b6000806005838154811061068957fe5b906000526020600020906003020160000154600584815481106106a857fe5b90600052602060002090600302016001015491509150915091565b600581815481106106d057fe5b90600052602060002090600302016000915090508060000154908060010154908060020154905083565b6000806000600660008573ffffffffffffffffffffffffffffffffffffffff1673ffffffffffffffffffffffffffffffffffffffff16815260200190815260200160002060000154600660008673ffffffffffffffffffffffffffffffffffffffff1673ffffffffffffffffffffffffffffffffffffffff16815260200190815260200160002060010154600660008773ffffffffffffffffffffffffffffffffffffffff1673ffffffffffffffffffffffffffffffffffffffff16815260200190815260200160002060020160009054906101000a900460ff169250925092509193909250565b60006108338787878787604051602001808681526020018581526020018481526020018381526020018281526020019550505050505060405160208183030381529060405280519060200120611431565b905060006108418284611489565b905060008054906101000a900473ffffffffffffffffffffffffffffffffffffffff1673ffffffffffffffffffffffffffffffffffffffff168173ffffffffffffffffffffffffffffffffffffffff161461089b57600080fd5b6040518060800160405280898152602001888152602001878152602001868152506001600082015181600001556020820151816001015560408201518160020155606082015181600301559050507f7a01a2c9557cf6a0bb4a723bf0cd2672baab8cc6d1c39bf00334be8b7459a9638888888885604051808681526020018581526020018481526020018381526020018273ffffffffffffffffffffffffffffffffffffffff1681526020019550505050505060405180910390a15050505050505050565b81600160000154811180156109785750600180015481105b6109ea576040517f08c379a000000000000000000000000000000000000000000000000000000000815260040180806020018281038252601e8152602001807f57616b74752070656e646166746172616e2062656c756d20646962756b61000081525060200191505060405180910390fd5b6000610a3c8686604051602001808373ffffffffffffffffffffffffffffffffffffffff1660601b81526014018281526020019250505060405160208183030381529060405280519060200120611431565b90506000610a4a8285611489565b905060008054906101000a900473ffffffffffffffffffffffffffffffffffffffff1673ffffffffffffffffffffffffffffffffffffffff168173ffffffffffffffffffffffffffffffffffffffff1614610aa457600080fd5b600660008873ffffffffffffffffffffffffffffffffffffffff1673ffffffffffffffffffffffffffffffffffffffff16815260200190815260200160002060020160009054906101000a900460ff1615610b67576040517f08c379a000000000000000000000000000000000000000000000000000000000815260040180806020018281038252601e8152602001807f50656d696c69682074656c6168206d656d626572696b616e207375617261000081525060200191505060405180910390fd5b6000600660008973ffffffffffffffffffffffffffffffffffffffff1673ffffffffffffffffffffffffffffffffffffffff1681526020019081526020016000206000015414610c1f576040517f08c379a00000000000000000000000000000000000000000000000000000000081526004018080602001828103825260208152602001807f50656d696c69682074656c6168206d656d696c696b692068616b2070696c696881525060200191505060405180910390fd5b6001600660008973ffffffffffffffffffffffffffffffffffffffff1673ffffffffffffffffffffffffffffffffffffffff168152602001908152602001600020600001819055506000600660008973ffffffffffffffffffffffffffffffffffffffff1673ffffffffffffffffffffffffffffffffffffffff16815260200190815260200160002060020160006101000a81548160ff0219169083151502179055507f7230904336638db5b4f894024258b07b436918de8a60ef98f15e2c1982e4e546876001600084604051808573ffffffffffffffffffffffffffffffffffffffff16815260200184815260200183151581526020018273ffffffffffffffffffffffffffffffffffffffff16815260200194505050505060405180910390a150505050505050565b8260016000015481118015610d625750600180015481105b610dd4576040517f08c379a000000000000000000000000000000000000000000000000000000000815260040180806020018281038252601e8152602001807f57616b74752070656e646166746172616e2062656c756d20646962756b61000081525060200191505060405180910390fd5b6000610e1587858860405160200180848152602001838152602001828152602001935050505060405160208183030381529060405280519060200120611431565b90506000610e238285611489565b905060008054906101000a900473ffffffffffffffffffffffffffffffffffffffff1673ffffffffffffffffffffffffffffffffffffffff168173ffffffffffffffffffffffffffffffffffffffff1614610e7d57600080fd5b600560405180606001604052808a81526020016000815260200187815250908060018154018082558091505060019003906000526020600020906003020160009091909190915060008201518160000155602082015181600101556040820151816002015550507fc66bcbe13027ad75e39e0c01012b117bd4090ec89074d6e87c1a0a9692685e518860008784604051808581526020018481526020018381526020018273ffffffffffffffffffffffffffffffffffffffff16815260200194505050505060405180910390a15050505050505050565b60008160016000015481118015610f6e5750600180015481115b610fe0576040517f08c379a000000000000000000000000000000000000000000000000000000000815260040180806020018281038252601f8152602001807f57616b74752070656e646166746172616e2074656c616820646974757475700081525060200191505060405180910390fd5b82600160030154811161105b576040517f08c379a000000000000000000000000000000000000000000000000000000000815260040180806020018281038252601a8152602001807f57616b747520566f74696e672074656c6168206469647574757000000000000081525060200191505060405180910390fd5b600561106561150d565b8154811061106f57fe5b90600052602060002090600302016002015492505050919050565b6000806000806001600001546001800154600160020154600160030154935093509350935090919293565b6000600580549050905090565b81600160000154811180156110da5750600180015481115b61114c576040517f08c379a000000000000000000000000000000000000000000000000000000000815260040180806020018281038252601f8152602001807f57616b74752070656e646166746172616e2074656c616820646974757475700081525060200191505060405180910390fd5b8260016002015481118015611165575060016003015481105b6111d7576040517f08c379a00000000000000000000000000000000000000000000000000000000081526004018080602001828103825260198152602001807f57616b747520566f74696e672062656c756d20646962756b610000000000000081525060200191505060405180910390fd5b60006112108787604051602001808381526020018281526020019250505060405160208183030381529060405280519060200120611431565b9050600061121e8286611489565b90506112286115b3565b600660008373ffffffffffffffffffffffffffffffffffffffff1673ffffffffffffffffffffffffffffffffffffffff16815260200190815260200160002060405180606001604052908160008201548152602001600182015481526020016002820160009054906101000a900460ff16151515158152505090508060400151156112fe576040517f08c379a00000000000000000000000000000000000000000000000000000000081526004018080602001828103825260238152602001806115d76023913960400191505060405180910390fd5b600081600001511415611379576040517f08c379a00000000000000000000000000000000000000000000000000000000081526004018080602001828103825260208152602001807f50656d696c696820746964616b206d656d696c696b692068616b2070696c696881525060200191505060405180910390fd5b600181604001901515908115158152505088816020018181525050600060018a0390508160000151600582815481106113ae57fe5b9060005260206000209060030201600101600082825401925050819055508273ffffffffffffffffffffffffffffffffffffffff167f749addf8eadeff63c43be59c27331be5c6d4fc9e82bbfbcf162321c9b35a95b48b60016040518083815260200182151581526020019250505060405180910390a250505050505050505050565b60008160405160200180807f19457468657265756d205369676e6564204d6573736167653a0a333200000000815250601c01828152602001915050604051602081830303815290604052805190602001209050919050565b60008060008061149885611581565b92509250925060018684848460405160008152602001604052604051808581526020018460ff1681526020018381526020018281526020019450505050506020604051602081039080840390855afa1580156114f8573d6000803e3d6000fd5b50505060206040510351935050505092915050565b6000806000905060005b60058054905081101561157c57816005828154811061153257fe5b906000526020600020906003020160010154111561156f576005818154811061155757fe5b90600052602060002090600302016001015491508092505b8080600101915050611517565b505090565b6000806000604184511461159457600080fd5b6020840151915060408401519050606084015160001a92509193909250565b60405180606001604052806000815260200160008152602001600015158152509056fe50656d696c6968207375646168206d656e6767756e616b616e2068616b2070696c6968a2646970667358221220ea5869727533808457dc241a0a19b7d481b5222e5b8cfcda1e364a9a2583a78c64736f6c63430007000033",
  "immutableReferences": {},
  "source": "// SPDX-License-Identifier:MIT\npragma solidity 0.7.0;\n\ncontract Vote2Block {\n    // deklarasi address dari admin vote2block\n    address adminAddress;\n\n    event RegisterKandidat(\n        uint256 _kandidatID,\n        uint256 _totalVote,\n        bytes32 _kandidatName,\n        address _ownerAddress\n    );\n    event RegisterPemilih(\n        address _pemilihAddress,\n        uint256 _statusHakPilih,\n        bool statusVoting,\n        address _ownerAddress\n    );\n    event VotingTime(\n        uint256 _registerstart,\n        uint256 _registerfinis,\n        uint256 _votingstart,\n        uint256 _votingfinis,\n        address _ownerAddress\n    );\n    event Voted(\n        address indexed voterAddress,\n        uint256 kandidatID,\n        bool statusVoting\n    );\n\n    struct VotingTimeData {\n        uint256 registerstart;\n        uint256 registerfinis;\n        uint256 votingstart;\n        uint256 votingfinis;\n    }\n    VotingTimeData votingtimedata;\n    struct KandidatData {\n        uint256 kandidatID;\n        uint256 totalVote;\n        bytes32 kandidatName;\n    }\n    struct PemilihData {\n        uint256 hakPilih;\n        uint256 kandidatPilihan;\n        bool votingStatus;\n    }\n\n    // create array dari KandidatData\n    KandidatData[] public kandidat;\n    // mapping address pemilih ke PemilihData\n    mapping(address => PemilihData) public pemilihData;\n\n    // modifier pada smart-contract\n    modifier onlyRegisterStart(uint256 livetime) {\n        require(livetime > votingtimedata.registerstart && livetime < votingtimedata.registerfinis, \"Waktu pendaftaran belum dibuka\");\n        _;\n    }\n    modifier onlyRegisterFinis(uint256 livetime) {\n        require(livetime > votingtimedata.registerstart && livetime > votingtimedata.registerfinis,\"Waktu pendaftaran telah ditutup\");\n        _;\n    }\n    modifier onlyVotingStart(uint256 livetime) {\n        require(livetime > votingtimedata.votingstart && livetime < votingtimedata.votingfinis,\"Waktu Voting belum dibuka\");\n        _;\n    }\n    modifier onlyVotingFinis(uint256 livetime) {\n        require(livetime > votingtimedata.votingfinis,\"Waktu Voting telah didutup\");\n        _;\n    }\n\n    constructor(address _adminAddress) {\n        adminAddress = _adminAddress;\n    }\n\n    function SetupTimedata(\n        uint256 _registerstart,\n        uint256 _registerfinis,\n        uint256 _votingstart,\n        uint256 _votingfinis,\n        uint256 nonce,\n        bytes memory signature\n    ) public {\n        bytes32 message =\n            prefixed(\n                keccak256(\n                    abi.encodePacked(\n                        _registerstart,\n                        _registerfinis,\n                        _votingstart,\n                        _votingfinis,\n                        nonce\n                    )\n                )\n            );\n        address _ownerAddress = recoverSigner(message, signature);\n        require(_ownerAddress == adminAddress);\n        votingtimedata = VotingTimeData(\n            _registerstart,\n            _registerfinis,\n            _votingstart,\n            _votingfinis\n        );\n        emit VotingTime(\n            _registerstart,\n            _registerfinis,\n            _votingstart,\n            _votingfinis,\n            _ownerAddress\n        );\n    }\n\n    function KandidatRegister(\n        uint256 _kandidatID,\n        uint256 nonce,\n        uint256 _livetime,\n        bytes32 _kandidatName,\n        bytes memory signature\n    ) public onlyRegisterStart(_livetime) {\n        bytes32 message =\n            prefixed(\n                keccak256(abi.encodePacked(_kandidatID, _kandidatName, nonce))\n            );\n        address _ownerAddress = recoverSigner(message, signature);\n        require(_ownerAddress == adminAddress);\n        kandidat.push(\n            KandidatData({\n                kandidatID: _kandidatID,\n                totalVote: 0,\n                kandidatName: _kandidatName\n            })\n        );\n        emit RegisterKandidat(_kandidatID, 0, _kandidatName, _ownerAddress);\n    }\n\n    function PemilihRegister(\n        address _pemilihAddress,\n        uint256 nonce,\n        uint256 _livetime,\n        bytes memory signature\n    ) public onlyRegisterStart(_livetime) {\n        bytes32 message =\n            prefixed(keccak256(abi.encodePacked(_pemilihAddress, nonce)));\n        address _ownerAddress = recoverSigner(message, signature);\n        require(_ownerAddress == adminAddress);\n        require(\n            !pemilihData[_pemilihAddress].votingStatus,\n            \"Pemilih telah memberikan suara\"\n        );\n        require(\n            pemilihData[_pemilihAddress].hakPilih == 0,\n            \"Pemilih telah memiliki hak pilih\"\n        );\n        pemilihData[_pemilihAddress].hakPilih = 1;\n        pemilihData[_pemilihAddress].votingStatus = false;\n        emit RegisterPemilih(_pemilihAddress, 1, false, _ownerAddress);\n    }\n\n    function Voting(\n        uint256 _kandidatID,\n        uint256 nonce,\n        uint256 _livetime,\n        bytes memory signature\n    ) public onlyRegisterFinis(_livetime) onlyVotingStart(_livetime) {\n        bytes32 message =\n            prefixed(keccak256(abi.encodePacked(_kandidatID, nonce)));\n        address voterAddress = recoverSigner(message, signature);\n        PemilihData memory pemilih = pemilihData[voterAddress];\n        require(!pemilih.votingStatus, \"Pemilih sudah menggunakan hak pilih\");\n        require(pemilih.hakPilih != 0, \"Pemilih tidak memiliki hak pilih\");\n        pemilih.votingStatus = true;\n        pemilih.kandidatPilihan = _kandidatID;\n        uint256 kandidatIndex = _kandidatID - 1;\n        kandidat[kandidatIndex].totalVote += pemilih.hakPilih;\n        emit Voted(voterAddress, _kandidatID, true);\n    }\n\n    function _HitungTotalSuara() internal view returns (uint256 totalSuara_) {\n        uint256 totalSuaraKandidat = 0;\n        for (uint256 p = 0; p < kandidat.length; p++) {\n            if (kandidat[p].totalVote > totalSuaraKandidat) {\n                totalSuaraKandidat = kandidat[p].totalVote;\n                totalSuara_ = p;\n            }\n        }\n    }\n\n    function KandidatTerpilih(uint256 _livetime)\n        public\n        view\n        onlyRegisterFinis(_livetime)\n        onlyVotingFinis(_livetime)\n        returns (bytes32 kandidatName_)\n    {\n        kandidatName_ = kandidat[_HitungTotalSuara()].kandidatName;\n    }\n\n    function GetPemilihData(address _pemilihAddress)\n        public\n        view\n        returns (\n            uint256,\n            uint256,\n            bool\n        )\n    {\n        return (\n            pemilihData[_pemilihAddress].hakPilih,\n            pemilihData[_pemilihAddress].kandidatPilihan,\n            pemilihData[_pemilihAddress].votingStatus\n        );\n    }\n\n    function GetVotingTimeData()\n        public\n        view\n        returns (\n            uint256,\n            uint256,\n            uint256,\n            uint256\n        )\n    {\n        return (\n            votingtimedata.registerstart,\n            votingtimedata.registerfinis,\n            votingtimedata.votingstart,\n            votingtimedata.votingfinis\n        );\n    }\n\n    function GetTotalKandidat() public view returns(uint256) {\n        return kandidat.length;\n    }\n\n    function GetKandidatData(uint256 kandidatIndex) public view returns(uint256, uint256) {\n        return (kandidat[kandidatIndex].kandidatID, kandidat[kandidatIndex].totalVote);\n    }\n\n    // Handle signature data\n    function splitSignature(bytes memory signature)\n        internal\n        pure\n        returns (\n            uint8 v,\n            bytes32 r,\n            bytes32 s\n        )\n    {\n        require(signature.length == 65);\n        assembly {\n            r := mload(add(signature, 32))\n            s := mload(add(signature, 64))\n            v := byte(0, mload(add(signature, 96)))\n        }\n        return (v, r, s);\n    }\n\n    function recoverSigner(bytes32 message, bytes memory signature)\n        internal\n        pure\n        returns (address)\n    {\n        (uint8 v, bytes32 r, bytes32 s) = splitSignature(signature);\n        return ecrecover(message, v, r, s);\n    }\n\n    function prefixed(bytes32 hash) internal pure returns (bytes32) {\n        return\n            keccak256(\n                abi.encodePacked(\"\\x19Ethereum Signed Message:\\n32\", hash)\n            );\n    }\n}\n",
  "sourcePath": "/home/yafiabiyyu/Documents/Project/SKRIPSI/vote2block-smart-contract-javascript/contracts/Vote2Block.sol",
  "compiler": {
    "name": "solc",
    "version": "0.7.0+commit.9e61f92b.Emscripten.clang"
  },
  "schemaVersion": "3.3.3",
  "updatedAt": "2021-06-17T11:24:48.743Z",
  "networkType": "ethereum",
  "devdoc": {
    "kind": "dev",
    "methods": {},
    "version": 1
  },
  "userdoc": {
    "kind": "user",
    "methods": {},
    "version": 1
  }
}