{
  "contractName": "Vote2Block",
  "abi": [
    {
      "inputs": [
        {
          "internalType": "address",
          "name": "_ketuaAddress",
          "type": "address"
        }
      ],
      "stateMutability": "nonpayable",
      "type": "constructor"
    },
    {
      "anonymous": false,
      "inputs": [
        {
          "indexed": false,
          "internalType": "uint256",
          "name": "_kandidatID",
          "type": "uint256"
        },
        {
          "indexed": false,
          "internalType": "uint256",
          "name": "_totalVote",
          "type": "uint256"
        },
        {
          "indexed": false,
          "internalType": "bytes32",
          "name": "_kandidatName",
          "type": "bytes32"
        }
      ],
      "name": "NewKandidatRegister",
      "type": "event"
    },
    {
      "anonymous": false,
      "inputs": [
        {
          "indexed": false,
          "internalType": "address",
          "name": "_pemilihAddress",
          "type": "address"
        },
        {
          "indexed": false,
          "internalType": "uint256",
          "name": "_statusHakPilih",
          "type": "uint256"
        },
        {
          "indexed": false,
          "internalType": "bool",
          "name": "_statusVoting",
          "type": "bool"
        }
      ],
      "name": "NewPemilihRegister",
      "type": "event"
    },
    {
      "anonymous": false,
      "inputs": [
        {
          "indexed": true,
          "internalType": "bytes32",
          "name": "role",
          "type": "bytes32"
        },
        {
          "indexed": true,
          "internalType": "bytes32",
          "name": "previousAdminRole",
          "type": "bytes32"
        },
        {
          "indexed": true,
          "internalType": "bytes32",
          "name": "newAdminRole",
          "type": "bytes32"
        }
      ],
      "name": "RoleAdminChanged",
      "type": "event"
    },
    {
      "anonymous": false,
      "inputs": [
        {
          "indexed": true,
          "internalType": "bytes32",
          "name": "role",
          "type": "bytes32"
        },
        {
          "indexed": true,
          "internalType": "address",
          "name": "account",
          "type": "address"
        },
        {
          "indexed": true,
          "internalType": "address",
          "name": "sender",
          "type": "address"
        }
      ],
      "name": "RoleGranted",
      "type": "event"
    },
    {
      "anonymous": false,
      "inputs": [
        {
          "indexed": true,
          "internalType": "bytes32",
          "name": "role",
          "type": "bytes32"
        },
        {
          "indexed": true,
          "internalType": "address",
          "name": "account",
          "type": "address"
        },
        {
          "indexed": true,
          "internalType": "address",
          "name": "sender",
          "type": "address"
        }
      ],
      "name": "RoleRevoked",
      "type": "event"
    },
    {
      "anonymous": false,
      "inputs": [
        {
          "indexed": false,
          "internalType": "uint256",
          "name": "_registerStart",
          "type": "uint256"
        },
        {
          "indexed": false,
          "internalType": "uint256",
          "name": "_registerFinis",
          "type": "uint256"
        },
        {
          "indexed": false,
          "internalType": "uint256",
          "name": "_votingStart",
          "type": "uint256"
        },
        {
          "indexed": false,
          "internalType": "uint256",
          "name": "_votingFinis",
          "type": "uint256"
        }
      ],
      "name": "TimestampSetting",
      "type": "event"
    },
    {
      "inputs": [],
      "name": "DEFAULT_ADMIN_PETUGAS",
      "outputs": [
        {
          "internalType": "bytes32",
          "name": "",
          "type": "bytes32"
        }
      ],
      "stateMutability": "view",
      "type": "function",
      "constant": true
    },
    {
      "inputs": [],
      "name": "DEFAULT_ADMIN_ROLE",
      "outputs": [
        {
          "internalType": "bytes32",
          "name": "",
          "type": "bytes32"
        }
      ],
      "stateMutability": "view",
      "type": "function",
      "constant": true
    },
    {
      "inputs": [],
      "name": "DEFAULT_PETUGAS_ROLE",
      "outputs": [
        {
          "internalType": "bytes32",
          "name": "",
          "type": "bytes32"
        }
      ],
      "stateMutability": "view",
      "type": "function",
      "constant": true
    },
    {
      "inputs": [
        {
          "internalType": "bytes32",
          "name": "role",
          "type": "bytes32"
        }
      ],
      "name": "getRoleAdmin",
      "outputs": [
        {
          "internalType": "bytes32",
          "name": "",
          "type": "bytes32"
        }
      ],
      "stateMutability": "view",
      "type": "function",
      "constant": true
    },
    {
      "inputs": [
        {
          "internalType": "bytes32",
          "name": "role",
          "type": "bytes32"
        },
        {
          "internalType": "uint256",
          "name": "index",
          "type": "uint256"
        }
      ],
      "name": "getRoleMember",
      "outputs": [
        {
          "internalType": "address",
          "name": "",
          "type": "address"
        }
      ],
      "stateMutability": "view",
      "type": "function",
      "constant": true
    },
    {
      "inputs": [
        {
          "internalType": "bytes32",
          "name": "role",
          "type": "bytes32"
        }
      ],
      "name": "getRoleMemberCount",
      "outputs": [
        {
          "internalType": "uint256",
          "name": "",
          "type": "uint256"
        }
      ],
      "stateMutability": "view",
      "type": "function",
      "constant": true
    },
    {
      "inputs": [
        {
          "internalType": "bytes32",
          "name": "role",
          "type": "bytes32"
        },
        {
          "internalType": "address",
          "name": "account",
          "type": "address"
        }
      ],
      "name": "grantRole",
      "outputs": [],
      "stateMutability": "nonpayable",
      "type": "function"
    },
    {
      "inputs": [
        {
          "internalType": "bytes32",
          "name": "role",
          "type": "bytes32"
        },
        {
          "internalType": "address",
          "name": "account",
          "type": "address"
        }
      ],
      "name": "hasRole",
      "outputs": [
        {
          "internalType": "bool",
          "name": "",
          "type": "bool"
        }
      ],
      "stateMutability": "view",
      "type": "function",
      "constant": true
    },
    {
      "inputs": [
        {
          "internalType": "uint256",
          "name": "",
          "type": "uint256"
        }
      ],
      "name": "kandidat",
      "outputs": [
        {
          "internalType": "uint256",
          "name": "kandidatID",
          "type": "uint256"
        },
        {
          "internalType": "uint256",
          "name": "totalVote",
          "type": "uint256"
        },
        {
          "internalType": "bytes32",
          "name": "kandidatName",
          "type": "bytes32"
        }
      ],
      "stateMutability": "view",
      "type": "function",
      "constant": true
    },
    {
      "inputs": [
        {
          "internalType": "address",
          "name": "",
          "type": "address"
        }
      ],
      "name": "pemilih",
      "outputs": [
        {
          "internalType": "uint256",
          "name": "statusHakPilih",
          "type": "uint256"
        },
        {
          "internalType": "uint256",
          "name": "kandidatPilihan",
          "type": "uint256"
        },
        {
          "internalType": "bool",
          "name": "statusVoting",
          "type": "bool"
        }
      ],
      "stateMutability": "view",
      "type": "function",
      "constant": true
    },
    {
      "inputs": [
        {
          "internalType": "bytes32",
          "name": "role",
          "type": "bytes32"
        },
        {
          "internalType": "address",
          "name": "account",
          "type": "address"
        }
      ],
      "name": "renounceRole",
      "outputs": [],
      "stateMutability": "nonpayable",
      "type": "function"
    },
    {
      "inputs": [
        {
          "internalType": "bytes32",
          "name": "role",
          "type": "bytes32"
        },
        {
          "internalType": "address",
          "name": "account",
          "type": "address"
        }
      ],
      "name": "revokeRole",
      "outputs": [],
      "stateMutability": "nonpayable",
      "type": "function"
    },
    {
      "inputs": [
        {
          "internalType": "address",
          "name": "_adminPetugasAddress",
          "type": "address"
        }
      ],
      "name": "addAdminPetugas",
      "outputs": [],
      "stateMutability": "nonpayable",
      "type": "function"
    },
    {
      "inputs": [
        {
          "internalType": "address",
          "name": "_adminPetugasAddress",
          "type": "address"
        }
      ],
      "name": "removeAdminPetugas",
      "outputs": [],
      "stateMutability": "nonpayable",
      "type": "function"
    },
    {
      "inputs": [
        {
          "internalType": "address",
          "name": "_petugasAddress",
          "type": "address"
        }
      ],
      "name": "addPetugas",
      "outputs": [],
      "stateMutability": "nonpayable",
      "type": "function"
    },
    {
      "inputs": [
        {
          "internalType": "address",
          "name": "_petugasAddress",
          "type": "address"
        }
      ],
      "name": "removePetugas",
      "outputs": [],
      "stateMutability": "nonpayable",
      "type": "function"
    },
    {
      "inputs": [
        {
          "internalType": "uint256",
          "name": "_startRegisterTimeStamp",
          "type": "uint256"
        },
        {
          "internalType": "uint256",
          "name": "_finisRegisterTimeStamp",
          "type": "uint256"
        },
        {
          "internalType": "uint256",
          "name": "_startVotingEvent",
          "type": "uint256"
        },
        {
          "internalType": "uint256",
          "name": "_finisVotingEvent",
          "type": "uint256"
        }
      ],
      "name": "setVotingTimestampEvent",
      "outputs": [],
      "stateMutability": "nonpayable",
      "type": "function"
    },
    {
      "inputs": [
        {
          "internalType": "uint256",
          "name": "_kandidatID",
          "type": "uint256"
        },
        {
          "internalType": "uint256",
          "name": "_liveTimestamp",
          "type": "uint256"
        },
        {
          "internalType": "bytes32",
          "name": "_kandidatName",
          "type": "bytes32"
        }
      ],
      "name": "RegisterKandidat",
      "outputs": [],
      "stateMutability": "nonpayable",
      "type": "function"
    },
    {
      "inputs": [
        {
          "internalType": "address",
          "name": "_pemilihAddress",
          "type": "address"
        },
        {
          "internalType": "uint256",
          "name": "_liveTimestamp",
          "type": "uint256"
        }
      ],
      "name": "RegisterPemilih",
      "outputs": [],
      "stateMutability": "nonpayable",
      "type": "function"
    },
    {
      "inputs": [
        {
          "internalType": "uint256",
          "name": "_kandidatID",
          "type": "uint256"
        },
        {
          "internalType": "uint256",
          "name": "_liveTimestamp",
          "type": "uint256"
        }
      ],
      "name": "Voting",
      "outputs": [],
      "stateMutability": "nonpayable",
      "type": "function"
    },
    {
      "inputs": [],
      "name": "getKandidat",
      "outputs": [
        {
          "components": [
            {
              "internalType": "uint256",
              "name": "kandidatID",
              "type": "uint256"
            },
            {
              "internalType": "uint256",
              "name": "totalVote",
              "type": "uint256"
            },
            {
              "internalType": "bytes32",
              "name": "kandidatName",
              "type": "bytes32"
            }
          ],
          "internalType": "struct Vote2Block.Kandidat[]",
          "name": "",
          "type": "tuple[]"
        }
      ],
      "stateMutability": "view",
      "type": "function",
      "constant": true
    },
    {
      "inputs": [],
      "name": "kandidatTerpilih",
      "outputs": [
        {
          "internalType": "bytes32",
          "name": "kandidatName_",
          "type": "bytes32"
        }
      ],
      "stateMutability": "view",
      "type": "function",
      "constant": true
    }
  ],
  "bytecode": "0x60806040523480156200001157600080fd5b506040516200248e3803806200248e8339818101604052810190620000379190620002b4565b6200004c6000801b82620000a560201b60201c565b6200009e7f8443cd350038578072dc156fd27150aa8473e315e8408940d1432e801c990d277f0bf5e6b2f8ca947c2a2988dd00b6e0bda5d7a0064306c1408f02b7fb1e399b8c620000bb60201b60201c565b506200032e565b620000b782826200011d60201b60201c565b5050565b8060008084815260200190815260200160002060020154837fbd79b86ffe0ab8e8776151514217cd7cacd52c909f66475c3af44e129f0b00ff60405160405180910390a480600080848152602001908152602001600020600201819055505050565b6200014b81600080858152602001908152602001600020600001620001c060201b6200118f1790919060201c565b15620001bc5762000161620001f860201b60201c565b73ffffffffffffffffffffffffffffffffffffffff168173ffffffffffffffffffffffffffffffffffffffff16837f2f8788117e7eff1d82e926ec794901d17c78024a50270940304540a733656f0d60405160405180910390a45b5050565b6000620001f0836000018373ffffffffffffffffffffffffffffffffffffffff1660001b6200020060201b60201c565b905092915050565b600033905090565b60006200021483836200027a60201b60201c565b6200026f57826000018290806001815401808255809150506001900390600052602060002001600090919091909150558260000180549050836001016000848152602001908152602001600020819055506001905062000274565b600090505b92915050565b600080836001016000848152602001908152602001600020541415905092915050565b600081519050620002ae8162000314565b92915050565b600060208284031215620002c757600080fd5b6000620002d7848285016200029d565b91505092915050565b6000620002ed82620002f4565b9050919050565b600073ffffffffffffffffffffffffffffffffffffffff82169050919050565b6200031f81620002e0565b81146200032b57600080fd5b50565b612150806200033e6000396000f3fe608060405234801561001057600080fd5b50600436106101425760003560e01c806391d14854116100b8578063b96afc181161007c578063b96afc181461035f578063c564a97814610391578063ca15c873146103ad578063d547741f146103dd578063ddb82896146103f9578063f84b4d371461041757610142565b806391d14854146102bb578063a217fddf146102eb578063a8b94d0014610309578063b05f5be914610325578063b7dbc1881461034157610142565b80633fa328b31161010a5780633fa328b3146101e95780634474e1d71461020557806354eeaf4a146102215780635ba781061461023d578063657c3ef1146102595780639010d07c1461028b57610142565b806321cb432d14610147578063248a9ca3146101655780632f2ff15d1461019557806336568abe146101b15780633ec9ae35146101cd575b600080fd5b61014f610435565b60405161015c9190611db5565b60405180910390f35b61017f600480360381019061017a919061168e565b610462565b60405161018c9190611db5565b60405180910390f35b6101af60048036038101906101aa91906116b7565b610481565b005b6101cb60048036038101906101c691906116b7565b6104f4565b005b6101e760048036038101906101e29190611758565b610577565b005b61020360048036038101906101fe91906117e3565b6106d9565b005b61021f600480360381019061021a9190611629565b61078a565b005b61023b60048036038101906102369190611629565b610865565b005b61025760048036038101906102529190611794565b610959565b005b610273600480360381019061026e919061172f565b610aca565b60405161028293929190611f99565b60405180910390f35b6102a560048036038101906102a091906116f3565b610b01565b6040516102b29190611d26565b60405180910390f35b6102d560048036038101906102d091906116b7565b610b32565b6040516102e29190611d9a565b60405180910390f35b6102f3610b63565b6040516103009190611db5565b60405180910390f35b610323600480360381019061031e9190611629565b610b6a565b005b61033f600480360381019061033a9190611652565b610c45565b005b610349610f06565b6040516103569190611d78565b60405180910390f35b61037960048036038101906103749190611629565b610f83565b60405161038893929190611f62565b60405180910390f35b6103ab60048036038101906103a69190611629565b610fba565b005b6103c760048036038101906103c2919061168e565b6110ae565b6040516103d49190611f10565b60405180910390f35b6103f760048036038101906103f291906116b7565b6110d4565b005b610401611147565b60405161040e9190611db5565b60405180910390f35b61041f61116b565b60405161042c9190611db5565b60405180910390f35b600060026104416111bf565b8154811061044b57fe5b906000526020600020906003020160020154905090565b6000806000838152602001908152602001600020600201549050919050565b6104a7600080848152602001908152602001600020600201546104a261120c565b610b32565b6104e6576040517f08c379a00000000000000000000000000000000000000000000000000000000081526004016104dd90611df0565b60405180910390fd5b6104f08282611214565b5050565b6104fc61120c565b73ffffffffffffffffffffffffffffffffffffffff168173ffffffffffffffffffffffffffffffffffffffff1614610569576040517f08c379a000000000000000000000000000000000000000000000000000000000815260040161056090611ef0565b60405180910390fd5b61057382826112a7565b5050565b806105806115c2565b8060400151821180156105965750806060015182115b61059f57600080fd5b6000600160003373ffffffffffffffffffffffffffffffffffffffff1673ffffffffffffffffffffffffffffffffffffffff168152602001908152602001600020905060008160000154141561062a576040517f08c379a000000000000000000000000000000000000000000000000000000000815260040161062190611ed0565b60405180910390fd5b8060020160009054906101000a900460ff161561067c576040517f08c379a000000000000000000000000000000000000000000000000000000000815260040161067390611e10565b60405180910390fd5b60018160020160006101000a81548160ff0219169083151502179055508481600101819055508060000154600286815481106106b457fe5b9060005260206000209060030201600101600082825401925050819055505050505050565b6106e66000801b33610b32565b610725576040517f08c379a000000000000000000000000000000000000000000000000000000000815260040161071c90611e90565b60405180910390fd5b604051806080016040528085815260200184815260200183815260200182815250507f61e47a0ec63dff4300274c7ac73d83fd0731b3d1734ef7a5c39af0bc78c44d2a8484848460405161077c9493929190611fd0565b60405180910390a150505050565b6107b47f0bf5e6b2f8ca947c2a2988dd00b6e0bda5d7a0064306c1408f02b7fb1e399b8c33610b32565b6107bd57600080fd5b6107e77f8443cd350038578072dc156fd27150aa8473e315e8408940d1432e801c990d2782610481565b3373ffffffffffffffffffffffffffffffffffffffff168173ffffffffffffffffffffffffffffffffffffffff167f8443cd350038578072dc156fd27150aa8473e315e8408940d1432e801c990d277f2f8788117e7eff1d82e926ec794901d17c78024a50270940304540a733656f0d60405160405180910390a450565b6108726000801b33610b32565b6108b1576040517f08c379a00000000000000000000000000000000000000000000000000000000081526004016108a890611e90565b60405180910390fd5b6108db7f0bf5e6b2f8ca947c2a2988dd00b6e0bda5d7a0064306c1408f02b7fb1e399b8c826110d4565b3373ffffffffffffffffffffffffffffffffffffffff168173ffffffffffffffffffffffffffffffffffffffff167f0bf5e6b2f8ca947c2a2988dd00b6e0bda5d7a0064306c1408f02b7fb1e399b8c7ff6391f5c32d9c69d2a47ea670b442974b53935d1edc7fd64eb21e047a839171b60405160405180910390a450565b6109837f8443cd350038578072dc156fd27150aa8473e315e8408940d1432e801c990d2733610b32565b6109c2576040517f08c379a00000000000000000000000000000000000000000000000000000000081526004016109b990611e30565b60405180910390fd5b816109cb6115c2565b8060000151821180156109e15750806020015182115b610a20576040517f08c379a0000000000000000000000000000000000000000000000000000000008152600401610a1790611eb0565b60405180910390fd5b600260405180606001604052808781526020016000815260200185815250908060018154018082558091505060019003906000526020600020906003020160009091909190915060008201518160000155602082015181600101556040820151816002015550507f9474a518d17c67a70b3df49ebc025b522ebd8929a0e661acbf1b0c162522582385600085604051610abb93929190611f2b565b60405180910390a15050505050565b60028181548110610ad757fe5b90600052602060002090600302016000915090508060000154908060010154908060020154905083565b6000610b2a8260008086815260200190815260200160002060000161133a90919063ffffffff16565b905092915050565b6000610b5b8260008086815260200190815260200160002060000161135490919063ffffffff16565b905092915050565b6000801b81565b610b947f0bf5e6b2f8ca947c2a2988dd00b6e0bda5d7a0064306c1408f02b7fb1e399b8c33610b32565b610b9d57600080fd5b610bc77f8443cd350038578072dc156fd27150aa8473e315e8408940d1432e801c990d27826110d4565b3373ffffffffffffffffffffffffffffffffffffffff168173ffffffffffffffffffffffffffffffffffffffff167f8443cd350038578072dc156fd27150aa8473e315e8408940d1432e801c990d277ff6391f5c32d9c69d2a47ea670b442974b53935d1edc7fd64eb21e047a839171b60405160405180910390a450565b610c6f7f8443cd350038578072dc156fd27150aa8473e315e8408940d1432e801c990d2733610b32565b610cae576040517f08c379a0000000000000000000000000000000000000000000000000000000008152600401610ca590611e30565b60405180910390fd5b80610cb76115c2565b806000015182118015610ccd5750806020015182115b610d0c576040517f08c379a0000000000000000000000000000000000000000000000000000000008152600401610d0390611eb0565b60405180910390fd5b600160008573ffffffffffffffffffffffffffffffffffffffff1673ffffffffffffffffffffffffffffffffffffffff16815260200190815260200160002060020160009054906101000a900460ff1615610d9c576040517f08c379a0000000000000000000000000000000000000000000000000000000008152600401610d9390611e70565b60405180910390fd5b6000600160008673ffffffffffffffffffffffffffffffffffffffff1673ffffffffffffffffffffffffffffffffffffffff1681526020019081526020016000206000015414610e21576040517f08c379a0000000000000000000000000000000000000000000000000000000008152600401610e1890611ed0565b60405180910390fd5b60018060008673ffffffffffffffffffffffffffffffffffffffff1673ffffffffffffffffffffffffffffffffffffffff168152602001908152602001600020600001819055506000600160008673ffffffffffffffffffffffffffffffffffffffff1673ffffffffffffffffffffffffffffffffffffffff16815260200190815260200160002060020160006101000a81548160ff0219169083151502179055507f014ba60524d0a2bb58f72eda12d8b71c988e421488add22c4d2d819e4284beec8460016000604051610ef893929190611d41565b60405180910390a150505050565b60606002805480602002602001604051908101604052809291908181526020016000905b82821015610f7a5783829060005260206000209060030201604051806060016040529081600082015481526020016001820154815260200160028201548152505081526020019060010190610f2a565b50505050905090565b60016020528060005260406000206000915090508060000154908060010154908060020160009054906101000a900460ff16905083565b610fc76000801b33610b32565b611006576040517f08c379a0000000000000000000000000000000000000000000000000000000008152600401610ffd90611e90565b60405180910390fd5b6110307f0bf5e6b2f8ca947c2a2988dd00b6e0bda5d7a0064306c1408f02b7fb1e399b8c82610481565b3373ffffffffffffffffffffffffffffffffffffffff168173ffffffffffffffffffffffffffffffffffffffff167f8443cd350038578072dc156fd27150aa8473e315e8408940d1432e801c990d277f2f8788117e7eff1d82e926ec794901d17c78024a50270940304540a733656f0d60405160405180910390a450565b60006110cd600080848152602001908152602001600020600001611384565b9050919050565b6110fa600080848152602001908152602001600020600201546110f561120c565b610b32565b611139576040517f08c379a000000000000000000000000000000000000000000000000000000000815260040161113090611e50565b60405180910390fd5b61114382826112a7565b5050565b7f0bf5e6b2f8ca947c2a2988dd00b6e0bda5d7a0064306c1408f02b7fb1e399b8c81565b7f8443cd350038578072dc156fd27150aa8473e315e8408940d1432e801c990d2781565b60006111b7836000018373ffffffffffffffffffffffffffffffffffffffff1660001b611399565b905092915050565b6000806000905060005b60028054905081101561120757600281815481106111e357fe5b906000526020600020906003020160010154915080925080806001019150506111c9565b505090565b600033905090565b61123b8160008085815260200190815260200160002060000161118f90919063ffffffff16565b156112a35761124861120c565b73ffffffffffffffffffffffffffffffffffffffff168173ffffffffffffffffffffffffffffffffffffffff16837f2f8788117e7eff1d82e926ec794901d17c78024a50270940304540a733656f0d60405160405180910390a45b5050565b6112ce8160008085815260200190815260200160002060000161140990919063ffffffff16565b15611336576112db61120c565b73ffffffffffffffffffffffffffffffffffffffff168173ffffffffffffffffffffffffffffffffffffffff16837ff6391f5c32d9c69d2a47ea670b442974b53935d1edc7fd64eb21e047a839171b60405160405180910390a45b5050565b60006113498360000183611439565b60001c905092915050565b600061137c836000018373ffffffffffffffffffffffffffffffffffffffff1660001b6114a6565b905092915050565b6000611392826000016114c9565b9050919050565b60006113a583836114a6565b6113fe578260000182908060018154018082558091505060019003906000526020600020016000909190919091505582600001805490508360010160008481526020019081526020016000208190555060019050611403565b600090505b92915050565b6000611431836000018373ffffffffffffffffffffffffffffffffffffffff1660001b6114da565b905092915050565b600081836000018054905011611484576040517f08c379a000000000000000000000000000000000000000000000000000000000815260040161147b90611dd0565b60405180910390fd5b82600001828154811061149357fe5b9060005260206000200154905092915050565b600080836001016000848152602001908152602001600020541415905092915050565b600081600001805490509050919050565b600080836001016000848152602001908152602001600020549050600081146115b6576000600182039050600060018660000180549050039050600086600001828154811061152557fe5b906000526020600020015490508087600001848154811061154257fe5b906000526020600020018190555060018301876001016000838152602001908152602001600020819055508660000180548061157a57fe5b600190038181906000526020600020016000905590558660010160008781526020019081526020016000206000905560019450505050506115bc565b60009150505b92915050565b6040518060800160405280600081526020016000815260200160008152602001600081525090565b6000813590506115f9816120d5565b92915050565b60008135905061160e816120ec565b92915050565b60008135905061162381612103565b92915050565b60006020828403121561163b57600080fd5b6000611649848285016115ea565b91505092915050565b6000806040838503121561166557600080fd5b6000611673858286016115ea565b925050602061168485828601611614565b9150509250929050565b6000602082840312156116a057600080fd5b60006116ae848285016115ff565b91505092915050565b600080604083850312156116ca57600080fd5b60006116d8858286016115ff565b92505060206116e9858286016115ea565b9150509250929050565b6000806040838503121561170657600080fd5b6000611714858286016115ff565b925050602061172585828601611614565b9150509250929050565b60006020828403121561174157600080fd5b600061174f84828501611614565b91505092915050565b6000806040838503121561176b57600080fd5b600061177985828601611614565b925050602061178a85828601611614565b9150509250929050565b6000806000606084860312156117a957600080fd5b60006117b786828701611614565b93505060206117c886828701611614565b92505060406117d9868287016115ff565b9150509250925092565b600080600080608085870312156117f957600080fd5b600061180787828801611614565b945050602061181887828801611614565b935050604061182987828801611614565b925050606061183a87828801611614565b91505092959194509250565b60006118528383611cc6565b60608301905092915050565b6118678161205f565b82525050565b600061187882612025565b611882818561203d565b935061188d83612015565b8060005b838110156118be5781516118a58882611846565b97506118b083612030565b925050600181019050611891565b5085935050505092915050565b6118d481612071565b82525050565b6118e38161207d565b82525050565b6118f28161207d565b82525050565b611901816120b1565b82525050565b611910816120c3565b82525050565b600061192360228361204e565b91507f456e756d657261626c655365743a20696e646578206f7574206f6620626f756e60008301527f64730000000000000000000000000000000000000000000000000000000000006020830152604082019050919050565b6000611989602f8361204e565b91507f416363657373436f6e74726f6c3a2073656e646572206d75737420626520616e60008301527f2061646d696e20746f206772616e7400000000000000000000000000000000006020830152604082019050919050565b60006119ef60268361204e565b91507f50656d696c6968207375646168206d656e6767756e616b616e2068616b20706960008301527f6c69686e796100000000000000000000000000000000000000000000000000006020830152604082019050919050565b6000611a55601c8361204e565b91507f54657262617461732068616e796120756e74756b2070657475676173000000006000830152602082019050919050565b6000611a9560308361204e565b91507f416363657373436f6e74726f6c3a2073656e646572206d75737420626520616e60008301527f2061646d696e20746f207265766f6b65000000000000000000000000000000006020830152604082019050919050565b6000611afb60228361204e565b91507f50656d696c6968207375646168206d656d626572696b616e2068616b2073756160008301527f72610000000000000000000000000000000000000000000000000000000000006020830152604082019050919050565b6000611b6160288361204e565b91507f54657262617461732068616e796120756e74756b206b657475612070656e796560008301527f6c656e67676172610000000000000000000000000000000000000000000000006020830152604082019050919050565b6000611bc760338361204e565b91507f57616b74752070656e646166746172616e2074656c61682073656c657361692060008301527f617461752062656c756d206469206d756c6169000000000000000000000000006020830152604082019050919050565b6000611c2d60208361204e565b91507f50656d696c696820746964616b206d656d696c696b692068616b2070696c69686000830152602082019050919050565b6000611c6d602f8361204e565b91507f416363657373436f6e74726f6c3a2063616e206f6e6c792072656e6f756e636560008301527f20726f6c657320666f722073656c6600000000000000000000000000000000006020830152604082019050919050565b606082016000820151611cdc6000850182611d08565b506020820151611cef6020850182611d08565b506040820151611d0260408501826118da565b50505050565b611d11816120a7565b82525050565b611d20816120a7565b82525050565b6000602082019050611d3b600083018461185e565b92915050565b6000606082019050611d56600083018661185e565b611d636020830185611907565b611d7060408301846118cb565b949350505050565b60006020820190508181036000830152611d92818461186d565b905092915050565b6000602082019050611daf60008301846118cb565b92915050565b6000602082019050611dca60008301846118e9565b92915050565b60006020820190508181036000830152611de981611916565b9050919050565b60006020820190508181036000830152611e098161197c565b9050919050565b60006020820190508181036000830152611e29816119e2565b9050919050565b60006020820190508181036000830152611e4981611a48565b9050919050565b60006020820190508181036000830152611e6981611a88565b9050919050565b60006020820190508181036000830152611e8981611aee565b9050919050565b60006020820190508181036000830152611ea981611b54565b9050919050565b60006020820190508181036000830152611ec981611bba565b9050919050565b60006020820190508181036000830152611ee981611c20565b9050919050565b60006020820190508181036000830152611f0981611c60565b9050919050565b6000602082019050611f256000830184611d17565b92915050565b6000606082019050611f406000830186611d17565b611f4d60208301856118f8565b611f5a60408301846118e9565b949350505050565b6000606082019050611f776000830186611d17565b611f846020830185611d17565b611f9160408301846118cb565b949350505050565b6000606082019050611fae6000830186611d17565b611fbb6020830185611d17565b611fc860408301846118e9565b949350505050565b6000608082019050611fe56000830187611d17565b611ff26020830186611d17565b611fff6040830185611d17565b61200c6060830184611d17565b95945050505050565b6000819050602082019050919050565b600081519050919050565b6000602082019050919050565b600082825260208201905092915050565b600082825260208201905092915050565b600061206a82612087565b9050919050565b60008115159050919050565b6000819050919050565b600073ffffffffffffffffffffffffffffffffffffffff82169050919050565b6000819050919050565b60006120bc826120a7565b9050919050565b60006120ce826120a7565b9050919050565b6120de8161205f565b81146120e957600080fd5b50565b6120f58161207d565b811461210057600080fd5b50565b61210c816120a7565b811461211757600080fd5b5056fea2646970667358221220e4c401a1707f46217d01d2d4d236f433c5edd22ea6bbdd035c800bb0a77bc5ff64736f6c63430007000033",
  "immutableReferences": {},
  "source": "// SPDX-License-Identifier: MIT\npragma solidity 0.7.0;\npragma experimental ABIEncoderV2;\n\nimport \"@openzeppelin/contracts/access/AccessControl.sol\";\n\ncontract Vote2Block is AccessControl {\n    // Event list di contract\n    event TimestampSetting(\n        uint256 _registerStart,\n        uint256 _registerFinis,\n        uint256 _votingStart,\n        uint256 _votingFinis\n    );\n\n    event NewKandidatRegister(\n        uint256 _kandidatID,\n        uint256 _totalVote,\n        bytes32 _kandidatName\n    );\n\n    event NewPemilihRegister(\n        address _pemilihAddress,\n        uint256 _statusHakPilih,\n        bool _statusVoting\n    );\n\n    // Deklarasi role admin petugas dan petugas dengan bytes 32\n    bytes32 public constant DEFAULT_ADMIN_PETUGAS = keccak256(\"DEFAULT_ADMIN_PETUGAS\");\n    bytes32 public constant DEFAULT_PETUGAS_ROLE = keccak256(\"DEFAULT_PETUGAS_ROLE\");\n\n    constructor(address _ketuaAddress) {\n        _setupRole(DEFAULT_ADMIN_ROLE, _ketuaAddress);\n        _setRoleAdmin(DEFAULT_PETUGAS_ROLE, DEFAULT_ADMIN_PETUGAS);\n    }\n\n    //Modifier yang ada di dalam contract\n    modifier onlyOwner {\n        require(hasRole(DEFAULT_ADMIN_ROLE, msg.sender), \"Terbatas hanya untuk ketua penyelenggara\");\n        _;\n    }\n\n    modifier onlyAdminPetugas {\n        require(hasRole(DEFAULT_ADMIN_PETUGAS, msg.sender));\n        _;\n    }\n\n    modifier onlyPetugas {\n        require(hasRole(DEFAULT_PETUGAS_ROLE, msg.sender),\"Terbatas hanya untuk petugas\");\n        _;\n    }\n\n    modifier onlyRegisterStart(uint256 _liveTimestamp) {\n        VotingTimestampSetting memory vt;\n        require(\n            _liveTimestamp > vt.startRegisterTimestamp && _liveTimestamp > vt.finisRegisterTimestamp,\n            \"Waktu pendaftaran telah selesai atau belum di mulai\"\n        );\n        _;\n    }\n\n    modifier onlyVotingStart(uint256 _liveTimestamp) {\n        VotingTimestampSetting memory vt;\n        require(\n            _liveTimestamp > vt.startVotingEvent && _liveTimestamp > vt.finisVotingEvent\n        );\n        _;\n    }\n\n    // list struct data \n    struct VotingTimestampSetting {\n        uint256 startRegisterTimestamp;\n        uint256 finisRegisterTimestamp;\n\n        uint256 startVotingEvent;\n        uint256 finisVotingEvent;\n    }\n\n    struct Kandidat {\n        uint256 kandidatID;\n        uint256 totalVote;\n        bytes32 kandidatName;\n    }\n\n    struct Pemilih {\n        uint256 statusHakPilih;\n        uint256 kandidatPilihan;\n        bool statusVoting;\n    }\n    \n    //menyimpan Pemilih struct untuk setiap address\n    mapping(address => Pemilih) public pemilih;\n\n    //dynamic array dari kandidat struct\n    Kandidat[] public kandidat;\n\n    //seluruh function penyelenggara\n    function addAdminPetugas(address _adminPetugasAddress) public onlyOwner {\n        grantRole(DEFAULT_ADMIN_PETUGAS, _adminPetugasAddress);\n        emit RoleGranted(DEFAULT_PETUGAS_ROLE, _adminPetugasAddress, msg.sender);\n    }\n\n    function removeAdminPetugas(address _adminPetugasAddress) public onlyOwner {\n        revokeRole(DEFAULT_ADMIN_PETUGAS, _adminPetugasAddress);\n        emit RoleRevoked(DEFAULT_ADMIN_PETUGAS, _adminPetugasAddress, msg.sender);\n    }\n\n    function addPetugas(address _petugasAddress) public onlyAdminPetugas {\n        grantRole(DEFAULT_PETUGAS_ROLE, _petugasAddress);\n        emit RoleGranted(DEFAULT_PETUGAS_ROLE, _petugasAddress,msg.sender);\n    }\n\n    function removePetugas(address _petugasAddress) public onlyAdminPetugas {\n        revokeRole(DEFAULT_PETUGAS_ROLE, _petugasAddress);\n        emit RoleRevoked(DEFAULT_PETUGAS_ROLE, _petugasAddress,msg.sender);\n    }\n    \n    //voting function\n    function setVotingTimestampEvent(\n        uint256 _startRegisterTimeStamp,\n        uint256 _finisRegisterTimeStamp,\n        uint256 _startVotingEvent,\n        uint256 _finisVotingEvent\n    ) public onlyOwner {\n        //pass\n        VotingTimestampSetting(\n            _startRegisterTimeStamp,\n            _finisRegisterTimeStamp,\n            _startVotingEvent,\n            _finisVotingEvent\n        );\n        emit TimestampSetting(\n            _startRegisterTimeStamp,\n            _finisRegisterTimeStamp,\n            _startVotingEvent,\n            _finisVotingEvent\n        );\n    }\n\n    function RegisterKandidat(\n        uint256 _kandidatID,\n        uint256 _liveTimestamp,\n        bytes32 _kandidatName\n    ) public onlyPetugas onlyRegisterStart(_liveTimestamp) {\n        kandidat.push(Kandidat({\n            kandidatID:_kandidatID,\n            totalVote:0,\n            kandidatName:_kandidatName\n        }));\n        emit NewKandidatRegister(\n            _kandidatID,\n            0,\n            _kandidatName\n        );\n    }\n\n    function RegisterPemilih(\n        address _pemilihAddress,\n        uint256 _liveTimestamp\n    ) public onlyPetugas onlyRegisterStart(_liveTimestamp) {\n        require(!pemilih[_pemilihAddress].statusVoting, \"Pemilih sudah memberikan hak suara\");\n        require(pemilih[_pemilihAddress].statusHakPilih == 0, \"Pemilih tidak memiliki hak pilih\");\n        // memberikan hak pilih kepada pemilh \n        pemilih[_pemilihAddress].statusHakPilih = 1;\n        pemilih[_pemilihAddress].statusVoting = false;\n        emit NewPemilihRegister(\n            _pemilihAddress,\n            1,\n            false\n        );\n    }\n\n    function Voting(\n        uint256 _kandidatID,\n        uint256 _liveTimestamp\n    ) public onlyVotingStart(_liveTimestamp) {\n        Pemilih storage pm = pemilih[msg.sender];\n        require(\n            pm.statusHakPilih != 0,\n            \"Pemilih tidak memiliki hak pilih\"\n        );\n\n        require(\n            !pm.statusVoting,\n            \"Pemilih sudah menggunakan hak pilihnya\"\n        );\n        pm.statusVoting = true;\n        pm.kandidatPilihan = _kandidatID;\n        kandidat[_kandidatID].totalVote += pm.statusHakPilih;\n    }\n\n    function getKandidat() public view returns(Kandidat[] memory) {\n        return kandidat;\n    }\n\n    function _perhitunganSuara() private view returns(uint256 totalSuara_) {\n        uint totalSuaraKandidat = 0;\n        for (uint p = 0; p < kandidat.length; p++) {\n            totalSuaraKandidat = kandidat[p].totalVote;\n            totalSuara_ = p;\n        }\n    }\n\n    function kandidatTerpilih() public view returns(bytes32 kandidatName_) {\n        kandidatName_ = kandidat[_perhitunganSuara()].kandidatName; \n    }\n}\n",
  "sourcePath": "/home/yafiabiyyu/Documents/Project/SKRIPSI/vote2block-smart-contract-javascript/contracts/Vote2Block.sol",
  "compiler": {
    "name": "solc",
    "version": "0.7.0+commit.9e61f92b.Emscripten.clang"
  },
  "schemaVersion": "3.3.3",
  "updatedAt": "2021-03-17T04:26:26.150Z",
  "networkType": "ethereum",
  "devdoc": {
    "kind": "dev",
    "methods": {
      "getRoleAdmin(bytes32)": {
        "details": "Returns the admin role that controls `role`. See {grantRole} and {revokeRole}. To change a role's admin, use {_setRoleAdmin}."
      },
      "getRoleMember(bytes32,uint256)": {
        "details": "Returns one of the accounts that have `role`. `index` must be a value between 0 and {getRoleMemberCount}, non-inclusive. Role bearers are not sorted in any particular way, and their ordering may change at any point. WARNING: When using {getRoleMember} and {getRoleMemberCount}, make sure you perform all queries on the same block. See the following https://forum.openzeppelin.com/t/iterating-over-elements-on-enumerableset-in-openzeppelin-contracts/2296[forum post] for more information."
      },
      "getRoleMemberCount(bytes32)": {
        "details": "Returns the number of accounts that have `role`. Can be used together with {getRoleMember} to enumerate all bearers of a role."
      },
      "grantRole(bytes32,address)": {
        "details": "Grants `role` to `account`. If `account` had not been already granted `role`, emits a {RoleGranted} event. Requirements: - the caller must have ``role``'s admin role."
      },
      "hasRole(bytes32,address)": {
        "details": "Returns `true` if `account` has been granted `role`."
      },
      "renounceRole(bytes32,address)": {
        "details": "Revokes `role` from the calling account. Roles are often managed via {grantRole} and {revokeRole}: this function's purpose is to provide a mechanism for accounts to lose their privileges if they are compromised (such as when a trusted device is misplaced). If the calling account had been granted `role`, emits a {RoleRevoked} event. Requirements: - the caller must be `account`."
      },
      "revokeRole(bytes32,address)": {
        "details": "Revokes `role` from `account`. If `account` had been granted `role`, emits a {RoleRevoked} event. Requirements: - the caller must have ``role``'s admin role."
      }
    },
    "version": 1
  },
  "userdoc": {
    "kind": "user",
    "methods": {},
    "version": 1
  }
}