{
  "contractName": "Vote2Block",
  "abi": [
    {
      "inputs": [
        {
          "internalType": "address",
          "name": "_ketuaPenyelenggara",
          "type": "address"
        }
      ],
      "stateMutability": "nonpayable",
      "type": "constructor"
    },
    {
      "anonymous": false,
      "inputs": [
        {
          "indexed": false,
          "internalType": "address",
          "name": "_adminAddress",
          "type": "address"
        },
        {
          "indexed": false,
          "internalType": "address",
          "name": "sender",
          "type": "address"
        }
      ],
      "name": "RegisterAdminPetugas",
      "type": "event"
    },
    {
      "anonymous": false,
      "inputs": [
        {
          "indexed": false,
          "internalType": "uint256",
          "name": "_kandidatID",
          "type": "uint256"
        },
        {
          "indexed": false,
          "internalType": "uint256",
          "name": "_totalVote",
          "type": "uint256"
        },
        {
          "indexed": false,
          "internalType": "bytes32",
          "name": "_kandidatName",
          "type": "bytes32"
        },
        {
          "indexed": false,
          "internalType": "address",
          "name": "sender",
          "type": "address"
        }
      ],
      "name": "RegisterKandidat",
      "type": "event"
    },
    {
      "anonymous": false,
      "inputs": [
        {
          "indexed": false,
          "internalType": "address",
          "name": "_pemilihAddress",
          "type": "address"
        },
        {
          "indexed": false,
          "internalType": "uint256",
          "name": "_statusHakpilih",
          "type": "uint256"
        },
        {
          "indexed": false,
          "internalType": "bool",
          "name": "statusVoting",
          "type": "bool"
        }
      ],
      "name": "RegisterPemilih",
      "type": "event"
    },
    {
      "anonymous": false,
      "inputs": [
        {
          "indexed": false,
          "internalType": "address",
          "name": "_petugasAddress",
          "type": "address"
        },
        {
          "indexed": false,
          "internalType": "address",
          "name": "sender",
          "type": "address"
        }
      ],
      "name": "RegisterPetugas",
      "type": "event"
    },
    {
      "anonymous": false,
      "inputs": [
        {
          "indexed": false,
          "internalType": "address",
          "name": "_adminAddress",
          "type": "address"
        },
        {
          "indexed": false,
          "internalType": "address",
          "name": "sender",
          "type": "address"
        }
      ],
      "name": "RemoveAdminPetugas",
      "type": "event"
    },
    {
      "anonymous": false,
      "inputs": [
        {
          "indexed": false,
          "internalType": "address",
          "name": "_petugasAddress",
          "type": "address"
        },
        {
          "indexed": false,
          "internalType": "address",
          "name": "sender",
          "type": "address"
        }
      ],
      "name": "RemovePetugas",
      "type": "event"
    },
    {
      "anonymous": false,
      "inputs": [
        {
          "indexed": false,
          "internalType": "uint256",
          "name": "_registerStart",
          "type": "uint256"
        },
        {
          "indexed": false,
          "internalType": "uint256",
          "name": "_registerFinis",
          "type": "uint256"
        },
        {
          "indexed": false,
          "internalType": "uint256",
          "name": "_votingStart",
          "type": "uint256"
        },
        {
          "indexed": false,
          "internalType": "uint256",
          "name": "_votingFinis",
          "type": "uint256"
        }
      ],
      "name": "VotingTimeSet",
      "type": "event"
    },
    {
      "inputs": [
        {
          "internalType": "address",
          "name": "",
          "type": "address"
        }
      ],
      "name": "AdminPetugas",
      "outputs": [
        {
          "internalType": "bool",
          "name": "",
          "type": "bool"
        }
      ],
      "stateMutability": "view",
      "type": "function",
      "constant": true
    },
    {
      "inputs": [
        {
          "internalType": "address",
          "name": "",
          "type": "address"
        }
      ],
      "name": "Petugas",
      "outputs": [
        {
          "internalType": "bool",
          "name": "",
          "type": "bool"
        }
      ],
      "stateMutability": "view",
      "type": "function",
      "constant": true
    },
    {
      "inputs": [
        {
          "internalType": "uint256",
          "name": "",
          "type": "uint256"
        }
      ],
      "name": "kandidat",
      "outputs": [
        {
          "internalType": "uint256",
          "name": "kandidatID",
          "type": "uint256"
        },
        {
          "internalType": "uint256",
          "name": "totalVote",
          "type": "uint256"
        },
        {
          "internalType": "bytes32",
          "name": "kandidatName",
          "type": "bytes32"
        }
      ],
      "stateMutability": "view",
      "type": "function",
      "constant": true
    },
    {
      "inputs": [
        {
          "internalType": "address",
          "name": "",
          "type": "address"
        }
      ],
      "name": "pemilih",
      "outputs": [
        {
          "internalType": "uint256",
          "name": "statusHakPilih",
          "type": "uint256"
        },
        {
          "internalType": "uint256",
          "name": "kandidatPilihan",
          "type": "uint256"
        },
        {
          "internalType": "bool",
          "name": "statusVoting",
          "type": "bool"
        }
      ],
      "stateMutability": "view",
      "type": "function",
      "constant": true
    },
    {
      "inputs": [
        {
          "internalType": "address",
          "name": "_adminAddress",
          "type": "address"
        },
        {
          "internalType": "uint256",
          "name": "nonce",
          "type": "uint256"
        },
        {
          "internalType": "bytes",
          "name": "signature",
          "type": "bytes"
        }
      ],
      "name": "addAdminPetugas",
      "outputs": [],
      "stateMutability": "nonpayable",
      "type": "function"
    },
    {
      "inputs": [
        {
          "internalType": "address",
          "name": "_adminAddress",
          "type": "address"
        },
        {
          "internalType": "uint256",
          "name": "nonce",
          "type": "uint256"
        },
        {
          "internalType": "bytes",
          "name": "signature",
          "type": "bytes"
        }
      ],
      "name": "removeAdminPetugas",
      "outputs": [],
      "stateMutability": "nonpayable",
      "type": "function"
    },
    {
      "inputs": [
        {
          "internalType": "uint256",
          "name": "_startRegisterTimeStamp",
          "type": "uint256"
        },
        {
          "internalType": "uint256",
          "name": "_finisRegisterTimeStamp",
          "type": "uint256"
        },
        {
          "internalType": "uint256",
          "name": "_startVotingEvent",
          "type": "uint256"
        },
        {
          "internalType": "uint256",
          "name": "_finisVotingEvent",
          "type": "uint256"
        },
        {
          "internalType": "bytes",
          "name": "signature",
          "type": "bytes"
        }
      ],
      "name": "setVotingTimestampEvent",
      "outputs": [],
      "stateMutability": "nonpayable",
      "type": "function"
    },
    {
      "inputs": [
        {
          "internalType": "address",
          "name": "_petugasAddress",
          "type": "address"
        },
        {
          "internalType": "uint256",
          "name": "nonce",
          "type": "uint256"
        },
        {
          "internalType": "bytes",
          "name": "signature",
          "type": "bytes"
        }
      ],
      "name": "addPetugas",
      "outputs": [],
      "stateMutability": "nonpayable",
      "type": "function"
    },
    {
      "inputs": [
        {
          "internalType": "address",
          "name": "_petugasAddress",
          "type": "address"
        },
        {
          "internalType": "uint256",
          "name": "nonce",
          "type": "uint256"
        },
        {
          "internalType": "bytes",
          "name": "signature",
          "type": "bytes"
        }
      ],
      "name": "removePetugas",
      "outputs": [],
      "stateMutability": "nonpayable",
      "type": "function"
    },
    {
      "inputs": [
        {
          "internalType": "uint256",
          "name": "_kandidatId",
          "type": "uint256"
        },
        {
          "internalType": "uint256",
          "name": "nonce",
          "type": "uint256"
        },
        {
          "internalType": "uint256",
          "name": "_liveTimestamp",
          "type": "uint256"
        },
        {
          "internalType": "bytes32",
          "name": "_kandidatName",
          "type": "bytes32"
        },
        {
          "internalType": "bytes",
          "name": "signature",
          "type": "bytes"
        }
      ],
      "name": "registerKandidat",
      "outputs": [],
      "stateMutability": "nonpayable",
      "type": "function"
    },
    {
      "inputs": [
        {
          "internalType": "address",
          "name": "_pemilihAddress",
          "type": "address"
        },
        {
          "internalType": "uint256",
          "name": "nonce",
          "type": "uint256"
        },
        {
          "internalType": "uint256",
          "name": "_liveTimestamp",
          "type": "uint256"
        },
        {
          "internalType": "bytes",
          "name": "signature",
          "type": "bytes"
        }
      ],
      "name": "registerPemilih",
      "outputs": [],
      "stateMutability": "nonpayable",
      "type": "function"
    },
    {
      "inputs": [
        {
          "internalType": "uint256",
          "name": "_kandidatID",
          "type": "uint256"
        },
        {
          "internalType": "uint256",
          "name": "nonce",
          "type": "uint256"
        },
        {
          "internalType": "uint256",
          "name": "_liveTimestamp",
          "type": "uint256"
        },
        {
          "internalType": "bytes",
          "name": "signature",
          "type": "bytes"
        }
      ],
      "name": "Voting",
      "outputs": [],
      "stateMutability": "nonpayable",
      "type": "function"
    },
    {
      "inputs": [],
      "name": "kandidatTerpilih",
      "outputs": [
        {
          "internalType": "bytes32",
          "name": "kandidatName_",
          "type": "bytes32"
        }
      ],
      "stateMutability": "view",
      "type": "function",
      "constant": true
    },
    {
      "inputs": [],
      "name": "getTotalKandidat",
      "outputs": [
        {
          "internalType": "uint256",
          "name": "",
          "type": "uint256"
        }
      ],
      "stateMutability": "view",
      "type": "function",
      "constant": true
    },
    {
      "inputs": [
        {
          "internalType": "uint256",
          "name": "kandidatIndex",
          "type": "uint256"
        }
      ],
      "name": "getKandidatData",
      "outputs": [
        {
          "internalType": "uint256",
          "name": "",
          "type": "uint256"
        },
        {
          "internalType": "uint256",
          "name": "",
          "type": "uint256"
        },
        {
          "internalType": "bytes32",
          "name": "",
          "type": "bytes32"
        }
      ],
      "stateMutability": "view",
      "type": "function",
      "constant": true
    }
  ],
  "bytecode": "0x608060405234801561001057600080fd5b50604051611df8380380611df88339818101604052602081101561003357600080fd5b8101908080519060200190929190505050806000806101000a81548173ffffffffffffffffffffffffffffffffffffffff021916908373ffffffffffffffffffffffffffffffffffffffff16021790555050611d64806100946000396000f3fe608060405234801561001057600080fd5b50600436106100f55760003560e01c8063c5d7123011610097578063d7dae89911610066578063d7dae899146107de578063da125730146108b7578063ed4577fc146108d5578063fae578cc14610925576100f5565b8063c5d71230146104d9578063c844b034146105bc578063cec3a53a1461069f578063d0febcea146106f9576100f5565b8063657c3ef1116100d3578063657c3ef1146102e25780638443dca514610332578063a48bb66914610417578063b96afc1814610471576100f5565b806301caa922146100fa57806321cb432d146101df5780632d78d100146101fd575b600080fd5b6101dd6004803603606081101561011057600080fd5b81019080803573ffffffffffffffffffffffffffffffffffffffff169060200190929190803590602001909291908035906020019064010000000081111561015757600080fd5b82018360208201111561016957600080fd5b8035906020019184600183028401116401000000008311171561018b57600080fd5b91908080601f016020809104026020016040519081016040528093929190818152602001838380828437600081840152601f19601f820116905080830192505050505050509192919290505050610a14565b005b6101e7610b96565b6040518082815260200191505060405180910390f35b6102e06004803603606081101561021357600080fd5b81019080803573ffffffffffffffffffffffffffffffffffffffff169060200190929190803590602001909291908035906020019064010000000081111561025a57600080fd5b82018360208201111561026c57600080fd5b8035906020019184600183028401116401000000008311171561028e57600080fd5b91908080601f016020809104026020016040519081016040528093929190818152602001838380828437600081840152601f19601f820116905080830192505050505050509192919290505050610bc3565b005b61030e600480360360208110156102f857600080fd5b8101908080359060200190929190505050610d93565b60405180848152602001838152602001828152602001935050505060405180910390f35b6104156004803603606081101561034857600080fd5b81019080803573ffffffffffffffffffffffffffffffffffffffff169060200190929190803590602001909291908035906020019064010000000081111561038f57600080fd5b8201836020820111156103a157600080fd5b803590602001918460018302840111640100000000831117156103c357600080fd5b91908080601f016020809104026020016040519081016040528093929190818152602001838380828437600081840152601f19601f820116905080830192505050505050509192919290505050610dca565b005b6104596004803603602081101561042d57600080fd5b81019080803573ffffffffffffffffffffffffffffffffffffffff169060200190929190505050610f4c565b60405180821515815260200191505060405180910390f35b6104b36004803603602081101561048757600080fd5b81019080803573ffffffffffffffffffffffffffffffffffffffff169060200190929190505050610f6c565b604051808481526020018381526020018215158152602001935050505060405180910390f35b6105ba600480360360a08110156104ef57600080fd5b81019080803590602001909291908035906020019092919080359060200190929190803590602001909291908035906020019064010000000081111561053457600080fd5b82018360208201111561054657600080fd5b8035906020019184600183028401116401000000008311171561056857600080fd5b91908080601f016020809104026020016040519081016040528093929190818152602001838380828437600081840152601f19601f820116905080830192505050505050509192919290505050610fa3565b005b61069d600480360360a08110156105d257600080fd5b81019080803590602001909291908035906020019092919080359060200190929190803590602001909291908035906020019064010000000081111561061757600080fd5b82018360208201111561062957600080fd5b8035906020019184600183028401116401000000008311171561064b57600080fd5b91908080601f016020809104026020016040519081016040528093929190818152602001838380828437600081840152601f19601f820116905080830192505050505050509192919290505050611196565b005b6106e1600480360360208110156106b557600080fd5b81019080803573ffffffffffffffffffffffffffffffffffffffff1690602001909291905050506112c1565b60405180821515815260200191505060405180910390f35b6107dc6004803603606081101561070f57600080fd5b81019080803573ffffffffffffffffffffffffffffffffffffffff169060200190929190803590602001909291908035906020019064010000000081111561075657600080fd5b82018360208201111561076857600080fd5b8035906020019184600183028401116401000000008311171561078a57600080fd5b91908080601f016020809104026020016040519081016040528093929190818152602001838380828437600081840152601f19601f8201169050808301925050505050505091929192905050506112e1565b005b6108b5600480360360808110156107f457600080fd5b810190808035906020019092919080359060200190929190803590602001909291908035906020019064010000000081111561082f57600080fd5b82018360208201111561084157600080fd5b8035906020019184600183028401116401000000008311171561086357600080fd5b91908080601f016020809104026020016040519081016040528093929190818152602001838380828437600081840152601f19601f8201169050808301925050505050505091929192905050506114b0565b005b6108bf6116b1565b6040518082815260200191505060405180910390f35b610901600480360360208110156108eb57600080fd5b81019080803590602001909291905050506116be565b60405180848152602001838152602001828152602001935050505060405180910390f35b610a126004803603608081101561093b57600080fd5b81019080803573ffffffffffffffffffffffffffffffffffffffff16906020019092919080359060200190929190803590602001909291908035906020019064010000000081111561098c57600080fd5b82018360208201111561099e57600080fd5b803590602001918460018302840111640100000000831117156109c057600080fd5b91908080601f016020809104026020016040519081016040528093929190818152602001838380828437600081840152601f19601f82011690508083019250505050505050919291929050505061172d565b005b6000610a668484604051602001808373ffffffffffffffffffffffffffffffffffffffff1660601b81526014018281526020019250505060405160208183030381529060405280519060200120611ac5565b90506000610a748284611b1d565b9050600160008273ffffffffffffffffffffffffffffffffffffffff1673ffffffffffffffffffffffffffffffffffffffff16815260200190815260200160002060009054906101000a900460ff16610acc57600080fd5b6000600260008773ffffffffffffffffffffffffffffffffffffffff1673ffffffffffffffffffffffffffffffffffffffff16815260200190815260200160002060006101000a81548160ff0219169083151502179055507fa392307238e13b99e8ce5c88475b32d69c121390323cc9010a32ab43617b10468582604051808373ffffffffffffffffffffffffffffffffffffffff1681526020018273ffffffffffffffffffffffffffffffffffffffff1681526020019250505060405180910390a15050505050565b60006003610ba2611ba1565b81548110610bac57fe5b906000526020600020906003020160020154905090565b6000610c158484604051602001808373ffffffffffffffffffffffffffffffffffffffff1660601b81526014018281526020019250505060405160208183030381529060405280519060200120611ac5565b90506000610c238284611b1d565b905060008054906101000a900473ffffffffffffffffffffffffffffffffffffffff1673ffffffffffffffffffffffffffffffffffffffff168173ffffffffffffffffffffffffffffffffffffffff1614610cc9576040517f08c379a0000000000000000000000000000000000000000000000000000000008152600401808060200182810382526034815260200180611ca56034913960400191505060405180910390fd5b6000600160008773ffffffffffffffffffffffffffffffffffffffff1673ffffffffffffffffffffffffffffffffffffffff16815260200190815260200160002060006101000a81548160ff0219169083151502179055507f472e4e066782109bfdd1182539d60e6d20f1bc1d25a1f564a11e51bb7262d1578582604051808373ffffffffffffffffffffffffffffffffffffffff1681526020018273ffffffffffffffffffffffffffffffffffffffff1681526020019250505060405180910390a15050505050565b60038181548110610da057fe5b90600052602060002090600302016000915090508060000154908060010154908060020154905083565b6000610e1c8484604051602001808373ffffffffffffffffffffffffffffffffffffffff1660601b81526014018281526020019250505060405160208183030381529060405280519060200120611ac5565b90506000610e2a8284611b1d565b9050600160008273ffffffffffffffffffffffffffffffffffffffff1673ffffffffffffffffffffffffffffffffffffffff16815260200190815260200160002060009054906101000a900460ff16610e8257600080fd5b6001600260008773ffffffffffffffffffffffffffffffffffffffff1673ffffffffffffffffffffffffffffffffffffffff16815260200190815260200160002060006101000a81548160ff0219169083151502179055507fa623da1696ed3a0de2a4db6fecd00b894fd4a8e223dfccafa18926ffd38e774e8582604051808373ffffffffffffffffffffffffffffffffffffffff1681526020018273ffffffffffffffffffffffffffffffffffffffff1681526020019250505060405180910390a15050505050565b60016020528060005260406000206000915054906101000a900460ff1681565b60046020528060005260406000206000915090508060000154908060010154908060020160009054906101000a900460ff16905083565b82610fac611c20565b806000015182118015610fc25750806020015182115b611017576040517f08c379a0000000000000000000000000000000000000000000000000000000008152600401808060200182810382526031815260200180611cfe6031913960400191505060405180910390fd5b600061105888868960405160200180848152602001838152602001828152602001935050505060405160208183030381529060405280519060200120611ac5565b905060006110668286611b1d565b9050600260008273ffffffffffffffffffffffffffffffffffffffff1673ffffffffffffffffffffffffffffffffffffffff16815260200190815260200160002060009054906101000a900460ff166110be57600080fd5b600360405180606001604052808b81526020016000815260200188815250908060018154018082558091505060019003906000526020600020906003020160009091909190915060008201518160000155602082015181600101556040820151816002015550507fc66bcbe13027ad75e39e0c01012b117bd4090ec89074d6e87c1a0a9692685e518960008884604051808581526020018481526020018381526020018273ffffffffffffffffffffffffffffffffffffffff16815260200194505050505060405180910390a1505050505050505050565b60006111df868686866040516020018085815260200184815260200183815260200182815260200194505050505060405160208183030381529060405280519060200120611ac5565b905060006111ed8284611b1d565b905060008054906101000a900473ffffffffffffffffffffffffffffffffffffffff1673ffffffffffffffffffffffffffffffffffffffff168173ffffffffffffffffffffffffffffffffffffffff161461124757600080fd5b604051806080016040528088815260200187815260200186815260200185815250507fa941a8d45e5f36c4ad6d384f5e93877fc58e6952e792a606b179587d1f6c32e1878787876040518085815260200184815260200183815260200182815260200194505050505060405180910390a150505050505050565b60026020528060005260406000206000915054906101000a900460ff1681565b60006113338484604051602001808373ffffffffffffffffffffffffffffffffffffffff1660601b81526014018281526020019250505060405160208183030381529060405280519060200120611ac5565b905060006113418284611b1d565b905060008054906101000a900473ffffffffffffffffffffffffffffffffffffffff1673ffffffffffffffffffffffffffffffffffffffff168173ffffffffffffffffffffffffffffffffffffffff16146113e7576040517f08c379a0000000000000000000000000000000000000000000000000000000008152600401808060200182810382526036815260200180611c6f6036913960400191505060405180910390fd5b60018060008773ffffffffffffffffffffffffffffffffffffffff1673ffffffffffffffffffffffffffffffffffffffff16815260200190815260200160002060006101000a81548160ff0219169083151502179055507f88f35cb42b7371e4f7e1bdb8c3f210fcd39d1cd57c4caaccd9c86eac495b68a68582604051808373ffffffffffffffffffffffffffffffffffffffff1681526020018273ffffffffffffffffffffffffffffffffffffffff1681526020019250505060405180910390a15050505050565b816114b9611c20565b8060400151821180156114cf5750806060015182115b6114d857600080fd5b60006115118787604051602001808381526020018281526020019250505060405160208183030381529060405280519060200120611ac5565b9050600061151f8286611b1d565b90506000600460008373ffffffffffffffffffffffffffffffffffffffff1673ffffffffffffffffffffffffffffffffffffffff16815260200190815260200160002090506000816000015414156115df576040517f08c379a00000000000000000000000000000000000000000000000000000000081526004018080602001828103825260208152602001807f50656d696c696820746964616b206d656d696c696b692068616b2070696c696881525060200191505060405180910390fd5b8060020160009054906101000a900460ff1615611647576040517f08c379a0000000000000000000000000000000000000000000000000000000008152600401808060200182810382526026815260200180611c496026913960400191505060405180910390fd5b60018160020160006101000a81548160ff021916908315150217905550888160010181905550600060018a03905081600001546003828154811061168757fe5b90600052602060002090600302016001016000828254019250508190555050505050505050505050565b6000600380549050905090565b6000806000600384815481106116d057fe5b906000526020600020906003020160000154600385815481106116ef57fe5b9060005260206000209060030201600101546003868154811061170e57fe5b9060005260206000209060030201600201549250925092509193909250565b81611736611c20565b80600001518211801561174c5750806020015182115b6117a1576040517f08c379a0000000000000000000000000000000000000000000000000000000008152600401808060200182810382526031815260200180611cfe6031913960400191505060405180910390fd5b60006117f38787604051602001808373ffffffffffffffffffffffffffffffffffffffff1660601b81526014018281526020019250505060405160208183030381529060405280519060200120611ac5565b905060006118018286611b1d565b9050600260008273ffffffffffffffffffffffffffffffffffffffff1673ffffffffffffffffffffffffffffffffffffffff16815260200190815260200160002060009054906101000a900460ff1661185957600080fd5b600460008973ffffffffffffffffffffffffffffffffffffffff1673ffffffffffffffffffffffffffffffffffffffff16815260200190815260200160002060020160009054906101000a900460ff16156118ff576040517f08c379a0000000000000000000000000000000000000000000000000000000008152600401808060200182810382526025815260200180611cd96025913960400191505060405180910390fd5b6000600460008a73ffffffffffffffffffffffffffffffffffffffff1673ffffffffffffffffffffffffffffffffffffffff16815260200190815260200160002060000154146119b7576040517f08c379a00000000000000000000000000000000000000000000000000000000081526004018080602001828103825260208152602001807f50656d696c69682062656c756d206d656d696c696b692068616b2070696c696881525060200191505060405180910390fd5b6001600460008a73ffffffffffffffffffffffffffffffffffffffff1673ffffffffffffffffffffffffffffffffffffffff168152602001908152602001600020600001819055506000600460008a73ffffffffffffffffffffffffffffffffffffffff1673ffffffffffffffffffffffffffffffffffffffff16815260200190815260200160002060020160006101000a81548160ff0219169083151502179055507ff6c373ebb5e124f37b69b5a212cad0416b17b14d64363002e2cb265e2bf2622e8860016000604051808473ffffffffffffffffffffffffffffffffffffffff1681526020018381526020018215158152602001935050505060405180910390a15050505050505050565b60008160405160200180807f19457468657265756d205369676e6564204d6573736167653a0a333200000000815250601c01828152602001915050604051602081830303815290604052805190602001209050919050565b600080600080611b2c85611bee565b92509250925060018684848460405160008152602001604052604051808581526020018460ff1681526020018381526020018281526020019450505050506020604051602081039080840390855afa158015611b8c573d6000803e3d6000fd5b50505060206040510351935050505092915050565b6000806000905060005b600380549050811015611be95760038181548110611bc557fe5b90600052602060002090600302016001015491508092508080600101915050611bab565b505090565b60008060006041845114611c0157600080fd5b6020840151915060408401519050606084015160001a92509193909250565b604051806080016040528060008152602001600081526020016000815260200160008152509056fe50656d696c6968207375646168206d656e6767756e616b616e2068616b2070696c69686e796148616e7961206b657475612070656e79656c656e67676172612079616e67206461706174206d656e616d6261686b616e2061646d696e48616e7961206b657475612070656e79656c656e67676172612079616e67206461706174206d656e6768617075732061646d696e50656d696c6968207375646168206d656d626572696b616e2068616b2070696c69686e796157616b74752072656769737465722062656c756d206469206d756c61692061746175207375646168206265726b61686972a264697066735822122031b610b5025b3e00bd42842996d768e90e8df031e2e1c8d69a9185746b1ec7cb64736f6c63430007000033",
  "immutableReferences": {},
  "source": "// SPDX-License-Identifier:MIT\npragma solidity 0.7.0;\n\ncontract Vote2Block {\n\n    // deklarasi akses pengguna di dalam smart-contract\n    address ketuaPenyelenggara;\n    mapping(address => bool) public AdminPetugas;\n    mapping(address => bool) public Petugas;\n    \n\n    // deklarasi event di dalam smart-contract\n    event RegisterAdminPetugas(address _adminAddress, address sender);\n    event RemoveAdminPetugas(address _adminAddress, address sender);\n    event VotingTimeSet(\n        uint256 _registerStart,\n        uint256 _registerFinis,\n        uint256 _votingStart,\n        uint256 _votingFinis\n    );\n    event RegisterPetugas(address _petugasAddress, address sender);\n    event RemovePetugas(address _petugasAddress, address sender);\n    event RegisterKandidat(\n        uint256 _kandidatID, \n        uint256 _totalVote, \n        bytes32 _kandidatName, \n        address sender\n    );\n    event RegisterPemilih(address _pemilihAddress, uint256 _statusHakpilih, bool statusVoting);\n\n    // modifier list\n    modifier onlyRegisterStart(uint256 _liveTimestamp) {\n        VotingTimeStamp memory vt;\n        require(\n            _liveTimestamp > vt.startRegisterTime && _liveTimestamp > vt.finishRegisterTime,\n            \"Waktu register belum di mulai atau sudah berkahir\"\n        );\n        _;\n    }\n    \n    modifier onlyVotingStart(uint256 _liveTimestamp) {\n      VotingTimeStamp memory vt;\n      require(\n        _liveTimestamp > vt.startVotingTime && _liveTimestamp > vt.finishVotingTime\n      );\n      _;\n    }\n    // struct data list\n    struct VotingTimeStamp {\n        uint256 startRegisterTime;\n        uint256 finishRegisterTime;\n        uint256 startVotingTime;\n        uint256 finishVotingTime;\n    }\n\n    struct Kandidat {\n        uint256 kandidatID;\n        uint256 totalVote;\n        bytes32 kandidatName;\n    }\n\n    struct Pemilih {\n        uint256 statusHakPilih;\n        uint256 kandidatPilihan;\n        bool statusVoting;\n    }\n\n\n    constructor(address _ketuaPenyelenggara) {\n        ketuaPenyelenggara = _ketuaPenyelenggara;\n    }\n    Kandidat[] public kandidat;\n    mapping(address => Pemilih) public pemilih;\n\n    // Ketua\n    function addAdminPetugas(address _adminAddress, uint256 nonce, bytes memory signature) public {\n        bytes32 message = prefixed(keccak256(abi.encodePacked(_adminAddress, nonce)));\n        address recoverAddress = recoverSigner(message, signature);\n        require(recoverAddress == ketuaPenyelenggara,\"Hanya ketua penyelenggara yang dapat menambahkan admin\");\n        AdminPetugas[_adminAddress] = true;\n        emit RegisterAdminPetugas(_adminAddress, recoverAddress);\n    }\n\n    function removeAdminPetugas(address _adminAddress, uint256 nonce, bytes memory signature) public {\n        bytes32 message = prefixed(keccak256(abi.encodePacked(_adminAddress, nonce)));\n        address recoverAddress = recoverSigner(message, signature);\n        require(recoverAddress == ketuaPenyelenggara,\"Hanya ketua penyelenggara yang dapat menghapus admin\");\n        AdminPetugas[_adminAddress] = false;\n        emit RemoveAdminPetugas(_adminAddress, recoverAddress);\n    }\n\n    function setVotingTimestampEvent(\n        uint256 _startRegisterTimeStamp,\n        uint256 _finisRegisterTimeStamp,\n        uint256 _startVotingEvent,\n        uint256 _finisVotingEvent,\n        bytes memory signature\n    ) public {\n        //pass\n        bytes32 message = prefixed(keccak256(abi.encodePacked(\n            _startRegisterTimeStamp,\n            _finisRegisterTimeStamp,\n            _startVotingEvent,\n            _finisVotingEvent\n        )));\n        address recoverAddress = recoverSigner(message, signature);\n        require(recoverAddress == ketuaPenyelenggara);\n        VotingTimeStamp(\n            _startRegisterTimeStamp,\n            _finisRegisterTimeStamp,\n            _startVotingEvent,\n            _finisVotingEvent\n        );\n        emit VotingTimeSet(\n            _startRegisterTimeStamp,\n            _finisRegisterTimeStamp,\n            _startVotingEvent,\n            _finisVotingEvent\n        );\n    }\n\n    // Admin Petugas\n    function addPetugas(address _petugasAddress, uint256 nonce, bytes memory signature) public {\n        bytes32 message = prefixed(keccak256(abi.encodePacked(_petugasAddress, nonce)));\n        address recoverAddress = recoverSigner(message, signature);\n        require(AdminPetugas[recoverAddress]);\n        Petugas[_petugasAddress] = true;\n        emit RegisterPetugas(_petugasAddress, recoverAddress);\n    }\n\n    function removePetugas(address _petugasAddress, uint256 nonce, bytes memory signature) public {\n        bytes32 message = prefixed(keccak256(abi.encodePacked(_petugasAddress, nonce)));\n        address recoverAddress = recoverSigner(message, signature);\n        require(AdminPetugas[recoverAddress]);\n        Petugas[_petugasAddress] = false;\n        emit RemovePetugas(_petugasAddress, recoverAddress);\n    }\n\n    // petugas\n    function registerKandidat(\n        uint256 _kandidatId,\n        uint256 nonce,\n        uint256 _liveTimestamp,\n        bytes32 _kandidatName,\n        bytes memory signature\n    ) public onlyRegisterStart(_liveTimestamp){\n        bytes32 message = prefixed(keccak256(abi.encodePacked(\n            _kandidatId,\n            _kandidatName,\n            nonce\n        )));\n        address recoverAddress = recoverSigner(message, signature);\n        require(Petugas[recoverAddress]);\n        kandidat.push(Kandidat({\n            kandidatID:_kandidatId,\n            totalVote:0,\n            kandidatName:_kandidatName\n        }));\n        emit RegisterKandidat(\n            _kandidatId,\n            0,\n            _kandidatName,\n            recoverAddress\n        );\n    }\n\n    function registerPemilih(\n        address _pemilihAddress,\n        uint256 nonce,\n        uint256 _liveTimestamp,\n        bytes memory signature\n    ) public onlyRegisterStart(_liveTimestamp){\n            bytes32 message = prefixed(\n              keccak256(abi.encodePacked(_pemilihAddress, nonce))\n            );\n            address recoverAddress = recoverSigner(message, signature);\n            require(Petugas[recoverAddress]);\n            require(\n              !pemilih[_pemilihAddress].statusVoting,\n              \"Pemilih sudah memberikan hak pilihnya\"\n            );\n            require(\n              pemilih[_pemilihAddress].statusHakPilih == 0,\n              \"Pemilih belum memiliki hak pilih\"\n            );\n            pemilih[_pemilihAddress].statusHakPilih = 1;\n            pemilih[_pemilihAddress].statusVoting = false;\n            emit RegisterPemilih(\n              _pemilihAddress,\n              1,\n              false\n            );\n        }\n\n    function Voting(\n      uint256 _kandidatID,\n      uint256 nonce,\n      uint256 _liveTimestamp,\n      bytes memory signature\n    ) public onlyVotingStart(_liveTimestamp) {\n      bytes32 message = prefixed(\n        keccak256(abi.encodePacked(_kandidatID,nonce))\n      );\n      address recoverAddress = recoverSigner(message, signature);\n      Pemilih storage pm = pemilih[recoverAddress];\n      require(\n        pm.statusHakPilih != 0,\n        \"Pemilih tidak memiliki hak pilih\"\n      );\n      require(\n        !pm.statusVoting,\n        \"Pemilih sudah menggunakan hak pilihnya\"\n      );\n      pm.statusVoting = true;\n      pm.kandidatPilihan = _kandidatID;\n      uint indexKandidat = _kandidatID - 1;\n      kandidat[indexKandidat].totalVote += pm.statusHakPilih;\n    }\n\n    function _hitungTotalSuara() internal view returns(uint256 totalSuara_) {\n      uint totalSuaraKandidat = 0;\n      for (uint p = 0; p < kandidat.length; p++) {\n        totalSuaraKandidat = kandidat[p].totalVote;\n        totalSuara_ = p;\n      }\n    }\n  \n    function kandidatTerpilih() public view returns(bytes32 kandidatName_) {\n      kandidatName_ = kandidat[_hitungTotalSuara()].kandidatName;\n    }\n\n    function getTotalKandidat() public view returns(uint256) {\n      return kandidat.length;\n    }\n\n    function getKandidatData(uint256 kandidatIndex) public view returns(uint256, uint256, bytes32) {\n      return(kandidat[kandidatIndex].kandidatID,kandidat[kandidatIndex].totalVote,kandidat[kandidatIndex].kandidatName);\n    }\n    // Handle signature data dari user\n    function splitSignature(bytes memory signature) internal pure returns(\n        uint8 v,\n        bytes32 r,\n        bytes32 s\n    ) {\n        require(signature.length == 65);\n        assembly {\n            r := mload(add(signature, 32))\n            s := mload(add(signature, 64))\n            v := byte(0, mload(add(signature, 96)))\n        }\n        return (v, r, s);\n    }\n\n    function recoverSigner(bytes32 message, bytes memory signature) internal pure returns(address) {\n        (uint8 v, bytes32 r, bytes32 s) = splitSignature(signature);\n        return ecrecover(message, v, r, s);\n    }\n\n    function prefixed(bytes32 hash) internal pure returns(bytes32) {\n        return keccak256(\n            abi.encodePacked(\"\\x19Ethereum Signed Message:\\n32\", hash)\n        );\n    }\n}\n",
  "sourcePath": "/home/yafiabiyyu/Documents/Project/SKRIPSI/vote2block-smart-contract-javascript/contracts/Vote2Block.sol",
  "compiler": {
    "name": "solc",
    "version": "0.7.0+commit.9e61f92b.Emscripten.clang"
  },
  "schemaVersion": "3.3.3",
  "updatedAt": "2021-04-04T08:01:28.383Z",
  "networkType": "ethereum",
  "devdoc": {
    "kind": "dev",
    "methods": {},
    "version": 1
  },
  "userdoc": {
    "kind": "user",
    "methods": {},
    "version": 1
  }
}