{
  "contractName": "Vote2Block",
  "abi": [
    {
      "inputs": [
        {
          "internalType": "address",
          "name": "_adminAddress",
          "type": "address"
        }
      ],
      "stateMutability": "nonpayable",
      "type": "constructor"
    },
    {
      "anonymous": false,
      "inputs": [
        {
          "indexed": false,
          "internalType": "uint256",
          "name": "_kandidatID",
          "type": "uint256"
        },
        {
          "indexed": false,
          "internalType": "uint256",
          "name": "_totalVote",
          "type": "uint256"
        },
        {
          "indexed": false,
          "internalType": "bytes32",
          "name": "_kandidatName",
          "type": "bytes32"
        },
        {
          "indexed": false,
          "internalType": "address",
          "name": "_ownerAddress",
          "type": "address"
        }
      ],
      "name": "RegisterKandidat",
      "type": "event"
    },
    {
      "anonymous": false,
      "inputs": [
        {
          "indexed": false,
          "internalType": "address",
          "name": "_pemilihAddress",
          "type": "address"
        },
        {
          "indexed": false,
          "internalType": "uint256",
          "name": "_statusHakPilih",
          "type": "uint256"
        },
        {
          "indexed": false,
          "internalType": "bool",
          "name": "statusVoting",
          "type": "bool"
        },
        {
          "indexed": false,
          "internalType": "address",
          "name": "_ownerAddress",
          "type": "address"
        }
      ],
      "name": "RegisterPemilih",
      "type": "event"
    },
    {
      "anonymous": false,
      "inputs": [
        {
          "indexed": true,
          "internalType": "address",
          "name": "voterAddress",
          "type": "address"
        },
        {
          "indexed": false,
          "internalType": "uint256",
          "name": "kandidatID",
          "type": "uint256"
        },
        {
          "indexed": false,
          "internalType": "bool",
          "name": "statusVoting",
          "type": "bool"
        }
      ],
      "name": "Voted",
      "type": "event"
    },
    {
      "anonymous": false,
      "inputs": [
        {
          "indexed": false,
          "internalType": "uint256",
          "name": "_registerstart",
          "type": "uint256"
        },
        {
          "indexed": false,
          "internalType": "uint256",
          "name": "_registerfinis",
          "type": "uint256"
        },
        {
          "indexed": false,
          "internalType": "uint256",
          "name": "_votingstart",
          "type": "uint256"
        },
        {
          "indexed": false,
          "internalType": "uint256",
          "name": "_votingfinis",
          "type": "uint256"
        },
        {
          "indexed": false,
          "internalType": "address",
          "name": "_ownerAddress",
          "type": "address"
        }
      ],
      "name": "VotingTime",
      "type": "event"
    },
    {
      "inputs": [
        {
          "internalType": "uint256",
          "name": "",
          "type": "uint256"
        }
      ],
      "name": "kandidat",
      "outputs": [
        {
          "internalType": "uint256",
          "name": "kandidatID",
          "type": "uint256"
        },
        {
          "internalType": "uint256",
          "name": "totalVote",
          "type": "uint256"
        },
        {
          "internalType": "bytes32",
          "name": "kandidatName",
          "type": "bytes32"
        }
      ],
      "stateMutability": "view",
      "type": "function",
      "constant": true
    },
    {
      "inputs": [
        {
          "internalType": "address",
          "name": "",
          "type": "address"
        }
      ],
      "name": "pemilihData",
      "outputs": [
        {
          "internalType": "uint256",
          "name": "hakPilih",
          "type": "uint256"
        },
        {
          "internalType": "uint256",
          "name": "kandidatPilihan",
          "type": "uint256"
        },
        {
          "internalType": "bool",
          "name": "votingStatus",
          "type": "bool"
        }
      ],
      "stateMutability": "view",
      "type": "function",
      "constant": true
    },
    {
      "inputs": [
        {
          "internalType": "uint256",
          "name": "_registerstart",
          "type": "uint256"
        },
        {
          "internalType": "uint256",
          "name": "_registerfinis",
          "type": "uint256"
        },
        {
          "internalType": "uint256",
          "name": "_votingstart",
          "type": "uint256"
        },
        {
          "internalType": "uint256",
          "name": "_votingfinis",
          "type": "uint256"
        },
        {
          "internalType": "uint256",
          "name": "nonce",
          "type": "uint256"
        },
        {
          "internalType": "bytes",
          "name": "signature",
          "type": "bytes"
        }
      ],
      "name": "SetupTimedata",
      "outputs": [],
      "stateMutability": "nonpayable",
      "type": "function"
    },
    {
      "inputs": [
        {
          "internalType": "uint256",
          "name": "_kandidatID",
          "type": "uint256"
        },
        {
          "internalType": "uint256",
          "name": "nonce",
          "type": "uint256"
        },
        {
          "internalType": "uint256",
          "name": "_livetime",
          "type": "uint256"
        },
        {
          "internalType": "bytes32",
          "name": "_kandidatName",
          "type": "bytes32"
        },
        {
          "internalType": "bytes",
          "name": "signature",
          "type": "bytes"
        }
      ],
      "name": "KandidatRegister",
      "outputs": [],
      "stateMutability": "nonpayable",
      "type": "function"
    },
    {
      "inputs": [
        {
          "internalType": "address",
          "name": "_pemilihAddress",
          "type": "address"
        },
        {
          "internalType": "uint256",
          "name": "nonce",
          "type": "uint256"
        },
        {
          "internalType": "uint256",
          "name": "_livetime",
          "type": "uint256"
        },
        {
          "internalType": "bytes",
          "name": "signature",
          "type": "bytes"
        }
      ],
      "name": "PemilihRegister",
      "outputs": [],
      "stateMutability": "nonpayable",
      "type": "function"
    },
    {
      "inputs": [
        {
          "internalType": "uint256",
          "name": "_kandidatID",
          "type": "uint256"
        },
        {
          "internalType": "uint256",
          "name": "nonce",
          "type": "uint256"
        },
        {
          "internalType": "uint256",
          "name": "_livetime",
          "type": "uint256"
        },
        {
          "internalType": "bytes",
          "name": "signature",
          "type": "bytes"
        }
      ],
      "name": "Voting",
      "outputs": [],
      "stateMutability": "nonpayable",
      "type": "function"
    },
    {
      "inputs": [
        {
          "internalType": "uint256",
          "name": "_livetime",
          "type": "uint256"
        }
      ],
      "name": "KandidatTerpilih",
      "outputs": [
        {
          "internalType": "bytes32",
          "name": "kandidatName_",
          "type": "bytes32"
        }
      ],
      "stateMutability": "view",
      "type": "function",
      "constant": true
    },
    {
      "inputs": [
        {
          "internalType": "address",
          "name": "_pemilihAddress",
          "type": "address"
        }
      ],
      "name": "GetPemilihData",
      "outputs": [
        {
          "internalType": "uint256",
          "name": "",
          "type": "uint256"
        },
        {
          "internalType": "uint256",
          "name": "",
          "type": "uint256"
        },
        {
          "internalType": "bool",
          "name": "",
          "type": "bool"
        }
      ],
      "stateMutability": "view",
      "type": "function",
      "constant": true
    },
    {
      "inputs": [],
      "name": "GetVotingTimeData",
      "outputs": [
        {
          "internalType": "uint256",
          "name": "",
          "type": "uint256"
        },
        {
          "internalType": "uint256",
          "name": "",
          "type": "uint256"
        },
        {
          "internalType": "uint256",
          "name": "",
          "type": "uint256"
        },
        {
          "internalType": "uint256",
          "name": "",
          "type": "uint256"
        }
      ],
      "stateMutability": "view",
      "type": "function",
      "constant": true
    },
    {
      "inputs": [],
      "name": "GetTotalKandidat",
      "outputs": [
        {
          "internalType": "uint256",
          "name": "",
          "type": "uint256"
        }
      ],
      "stateMutability": "view",
      "type": "function",
      "constant": true
    },
    {
      "inputs": [
        {
          "internalType": "uint256",
          "name": "kandidatIndex",
          "type": "uint256"
        }
      ],
      "name": "GetKandidatData",
      "outputs": [
        {
          "internalType": "uint256",
          "name": "",
          "type": "uint256"
        },
        {
          "internalType": "uint256",
          "name": "",
          "type": "uint256"
        },
        {
          "internalType": "bytes32",
          "name": "",
          "type": "bytes32"
        }
      ],
      "stateMutability": "view",
      "type": "function",
      "constant": true
    }
  ],
  "bytecode": "0x608060405234801561001057600080fd5b506040516114d03803806114d08339818101604052602081101561003357600080fd5b8101908080519060200190929190505050806000806101000a81548173ffffffffffffffffffffffffffffffffffffffff021916908373ffffffffffffffffffffffffffffffffffffffff1602179055505061143c806100946000396000f3fe608060405234801561001057600080fd5b50600436106100a95760003560e01c80638a2b6faa116100715780638a2b6faa1461030b5780638ae940e0146103fa578063a0d90cbf146104dd578063c47234411461051f578063c6aaea4514610552578063d7dae89914610570576100a9565b80630f4686b0146100ae578063541263de14610116578063657c3ef114610166578063670ee347146101b657806372c779461461021e575b600080fd5b6100f0600480360360208110156100c457600080fd5b81019080803573ffffffffffffffffffffffffffffffffffffffff169060200190929190505050610649565b604051808481526020018381526020018215158152602001935050505060405180910390f35b6101426004803603602081101561012c57600080fd5b8101908080359060200190929190505050610680565b60405180848152602001838152602001828152602001935050505060405180910390f35b6101926004803603602081101561017c57600080fd5b81019080803590602001909291905050506106ef565b60405180848152602001838152602001828152602001935050505060405180910390f35b6101f8600480360360208110156101cc57600080fd5b81019080803573ffffffffffffffffffffffffffffffffffffffff169060200190929190505050610726565b604051808481526020018381526020018215158152602001935050505060405180910390f35b610309600480360360c081101561023457600080fd5b8101908080359060200190929190803590602001909291908035906020019092919080359060200190929190803590602001909291908035906020019064010000000081111561028357600080fd5b82018360208201111561029557600080fd5b803590602001918460018302840111640100000000831117156102b757600080fd5b91908080601f016020809104026020016040519081016040528093929190818152602001838380828437600081840152601f19601f82011690508083019250505050505050919291929050505061080e565b005b6103f86004803603608081101561032157600080fd5b81019080803573ffffffffffffffffffffffffffffffffffffffff16906020019092919080359060200190929190803590602001909291908035906020019064010000000081111561037257600080fd5b82018360208201111561038457600080fd5b803590602001918460018302840111640100000000831117156103a657600080fd5b91908080601f016020809104026020016040519081016040528093929190818152602001838380828437600081840152601f19601f82011690508083019250505050505050919291929050505061098c565b005b6104db600480360360a081101561041057600080fd5b81019080803590602001909291908035906020019092919080359060200190929190803590602001909291908035906020019064010000000081111561045557600080fd5b82018360208201111561046757600080fd5b8035906020019184600183028401116401000000008311171561048957600080fd5b91908080601f016020809104026020016040519081016040528093929190818152602001838380828437600081840152601f19601f820116905080830192505050505050509192919290505050610d15565b005b610509600480360360208110156104f357600080fd5b8101908080359060200190929190505050610ebe565b6040518082815260200191505060405180910390f35b610527610f32565b6040518085815260200184815260200183815260200182815260200194505050505060405180910390f35b61055a610f5d565b6040518082815260200191505060405180910390f35b6106476004803603608081101561058657600080fd5b81019080803590602001909291908035906020019092919080359060200190929190803590602001906401000000008111156105c157600080fd5b8201836020820111156105d357600080fd5b803590602001918460018302840111640100000000831117156105f557600080fd5b91908080601f016020809104026020016040519081016040528093929190818152602001838380828437600081840152601f19601f820116905080830192505050505050509192919290505050610f6a565b005b60066020528060005260406000206000915090508060000154908060010154908060020160009054906101000a900460ff16905083565b60008060006005848154811061069257fe5b906000526020600020906003020160000154600585815481106106b157fe5b906000526020600020906003020160010154600586815481106106d057fe5b9060005260206000209060030201600201549250925092509193909250565b600581815481106106fc57fe5b90600052602060002090600302016000915090508060000154908060010154908060020154905083565b6000806000600660008573ffffffffffffffffffffffffffffffffffffffff1673ffffffffffffffffffffffffffffffffffffffff16815260200190815260200160002060000154600660008673ffffffffffffffffffffffffffffffffffffffff1673ffffffffffffffffffffffffffffffffffffffff16815260200190815260200160002060010154600660008773ffffffffffffffffffffffffffffffffffffffff1673ffffffffffffffffffffffffffffffffffffffff16815260200190815260200160002060020160009054906101000a900460ff169250925092509193909250565b600061085f8787878787604051602001808681526020018581526020018481526020018381526020018281526020019550505050505060405160208183030381529060405280519060200120611216565b9050600061086d828461126e565b905060008054906101000a900473ffffffffffffffffffffffffffffffffffffffff1673ffffffffffffffffffffffffffffffffffffffff168173ffffffffffffffffffffffffffffffffffffffff16146108c757600080fd5b6040518060800160405280898152602001888152602001878152602001868152506001600082015181600001556020820151816001015560408201518160020155606082015181600301559050507f7a01a2c9557cf6a0bb4a723bf0cd2672baab8cc6d1c39bf00334be8b7459a9638888888885604051808681526020018581526020018481526020018381526020018273ffffffffffffffffffffffffffffffffffffffff1681526020019550505050505060405180910390a15050505050505050565b81610995611398565b8060000151821180156109ab5750806020015182105b6109b457600080fd5b6000610a068787604051602001808373ffffffffffffffffffffffffffffffffffffffff1660601b81526014018281526020019250505060405160208183030381529060405280519060200120611216565b90506000610a14828661126e565b905060008054906101000a900473ffffffffffffffffffffffffffffffffffffffff1673ffffffffffffffffffffffffffffffffffffffff168173ffffffffffffffffffffffffffffffffffffffff1614610a6e57600080fd5b600660008973ffffffffffffffffffffffffffffffffffffffff1673ffffffffffffffffffffffffffffffffffffffff16815260200190815260200160002060020160009054906101000a900460ff1615610b31576040517f08c379a000000000000000000000000000000000000000000000000000000000815260040180806020018281038252601e8152602001807f50656d696c69682074656c6168206d656d626572696b616e207375617261000081525060200191505060405180910390fd5b6000600660008a73ffffffffffffffffffffffffffffffffffffffff1673ffffffffffffffffffffffffffffffffffffffff1681526020019081526020016000206000015414610be9576040517f08c379a00000000000000000000000000000000000000000000000000000000081526004018080602001828103825260208152602001807f50656d696c69682074656c6168206d656d696c696b692068616b2070696c696881525060200191505060405180910390fd5b6001600660008a73ffffffffffffffffffffffffffffffffffffffff1673ffffffffffffffffffffffffffffffffffffffff168152602001908152602001600020600001819055506000600660008a73ffffffffffffffffffffffffffffffffffffffff1673ffffffffffffffffffffffffffffffffffffffff16815260200190815260200160002060020160006101000a81548160ff0219169083151502179055507f7230904336638db5b4f894024258b07b436918de8a60ef98f15e2c1982e4e546886001600084604051808573ffffffffffffffffffffffffffffffffffffffff16815260200184815260200183151581526020018273ffffffffffffffffffffffffffffffffffffffff16815260200194505050505060405180910390a15050505050505050565b82610d1e611398565b806000015182118015610d345750806020015182105b610d3d57600080fd5b6000610d7e88868960405160200180848152602001838152602001828152602001935050505060405160208183030381529060405280519060200120611216565b90506000610d8c828661126e565b905060008054906101000a900473ffffffffffffffffffffffffffffffffffffffff1673ffffffffffffffffffffffffffffffffffffffff168173ffffffffffffffffffffffffffffffffffffffff1614610de657600080fd5b600560405180606001604052808b81526020016000815260200188815250908060018154018082558091505060019003906000526020600020906003020160009091909190915060008201518160000155602082015181600101556040820151816002015550507fc66bcbe13027ad75e39e0c01012b117bd4090ec89074d6e87c1a0a9692685e518960008884604051808581526020018481526020018381526020018273ffffffffffffffffffffffffffffffffffffffff16815260200194505050505060405180910390a1505050505050505050565b600081610ec9611398565b806000015182118015610edf5750806020015182115b610ee857600080fd5b83610ef1611398565b80606001518211610f0157600080fd5b6005610f0b6112f2565b81548110610f1557fe5b906000526020600020906003020160020154945050505050919050565b6000806000806001600001546001800154600160020154600160030154935093509350935090919293565b6000600580549050905090565b81610f73611398565b806000015182118015610f895750806020015182115b610f9257600080fd5b83610f9b611398565b806040015182118015610fb15750806060015182105b610fba57600080fd5b6000610ff38989604051602001808381526020018281526020019250505060405160208183030381529060405280519060200120611216565b90506000611001828861126e565b905061100b6113c0565b600660008373ffffffffffffffffffffffffffffffffffffffff1673ffffffffffffffffffffffffffffffffffffffff16815260200190815260200160002060405180606001604052908160008201548152602001600182015481526020016002820160009054906101000a900460ff16151515158152505090508060400151156110e1576040517f08c379a00000000000000000000000000000000000000000000000000000000081526004018080602001828103825260238152602001806113e46023913960400191505060405180910390fd5b60008160000151141561115c576040517f08c379a00000000000000000000000000000000000000000000000000000000081526004018080602001828103825260208152602001807f50656d696c696820746964616b206d656d696c696b692068616b2070696c696881525060200191505060405180910390fd5b60018160400190151590811515815250508a816020018181525050600060018c03905081600001516005828154811061119157fe5b9060005260206000209060030201600101600082825401925050819055508273ffffffffffffffffffffffffffffffffffffffff167f749addf8eadeff63c43be59c27331be5c6d4fc9e82bbfbcf162321c9b35a95b48d60016040518083815260200182151581526020019250505060405180910390a2505050505050505050505050565b60008160405160200180807f19457468657265756d205369676e6564204d6573736167653a0a333200000000815250601c01828152602001915050604051602081830303815290604052805190602001209050919050565b60008060008061127d85611366565b92509250925060018684848460405160008152602001604052604051808581526020018460ff1681526020018381526020018281526020019450505050506020604051602081039080840390855afa1580156112dd573d6000803e3d6000fd5b50505060206040510351935050505092915050565b6000806000905060005b60058054905081101561136157816005828154811061131757fe5b9060005260206000209060030201600101541115611354576005818154811061133c57fe5b90600052602060002090600302016001015491508092505b80806001019150506112fc565b505090565b6000806000604184511461137957600080fd5b6020840151915060408401519050606084015160001a92509193909250565b6040518060800160405280600081526020016000815260200160008152602001600081525090565b60405180606001604052806000815260200160008152602001600015158152509056fe50656d696c6968207375646168206d656e6767756e616b616e2068616b2070696c6968a26469706673582212203a20d184031f95ff748c05135cccbfb2c614851718830c0d59426ac41e261fde64736f6c63430007000033",
  "immutableReferences": {},
  "source": "// SPDX-License-Identifier:MIT\npragma solidity 0.7.0;\n\ncontract Vote2Block {\n    // deklarasi address dari admin vote2block\n    address adminAddress;\n\n    event RegisterKandidat(\n        uint256 _kandidatID,\n        uint256 _totalVote,\n        bytes32 _kandidatName,\n        address _ownerAddress\n    );\n    event RegisterPemilih(\n        address _pemilihAddress,\n        uint256 _statusHakPilih,\n        bool statusVoting,\n        address _ownerAddress\n    );\n    event VotingTime(\n        uint256 _registerstart,\n        uint256 _registerfinis,\n        uint256 _votingstart,\n        uint256 _votingfinis,\n        address _ownerAddress\n    );\n    event Voted(\n        address indexed voterAddress,\n        uint256 kandidatID,\n        bool statusVoting\n    );\n\n    struct VotingTimeData {\n        uint256 registerstart;\n        uint256 registerfinis;\n        uint256 votingstart;\n        uint256 votingfinis;\n    }\n    VotingTimeData votingtimedata;\n    struct KandidatData {\n        uint256 kandidatID;\n        uint256 totalVote;\n        bytes32 kandidatName;\n    }\n    struct PemilihData {\n        uint256 hakPilih;\n        uint256 kandidatPilihan;\n        bool votingStatus;\n    }\n\n    // create array dari KandidatData\n    KandidatData[] public kandidat;\n    // mapping address pemilih ke PemilihData\n    mapping(address => PemilihData) public pemilihData;\n\n    // modifier pada smart-contract\n    modifier onlyRegisterStart(uint256 livetime) {\n        VotingTimeData memory vtd;\n        require(livetime > vtd.registerstart && livetime < vtd.registerfinis);\n        _;\n    }\n    modifier onlyRegisterFinis(uint256 livetime) {\n        VotingTimeData memory vtd;\n        require(livetime > vtd.registerstart && livetime > vtd.registerfinis);\n        _;\n    }\n    modifier onlyVotingStart(uint256 livetime) {\n        VotingTimeData memory vtd;\n        require(livetime > vtd.votingstart && livetime < vtd.votingfinis);\n        _;\n    }\n    modifier onlyVotingFinis(uint256 livetime) {\n        VotingTimeData memory vtd;\n        require(livetime > vtd.votingfinis);\n        _;\n    }\n\n    constructor(address _adminAddress) {\n        adminAddress = _adminAddress;\n    }\n\n    function SetupTimedata(\n        uint256 _registerstart,\n        uint256 _registerfinis,\n        uint256 _votingstart,\n        uint256 _votingfinis,\n        uint256 nonce,\n        bytes memory signature\n    ) public {\n        bytes32 message =\n            prefixed(\n                keccak256(\n                    abi.encodePacked(\n                        _registerstart,\n                        _registerfinis,\n                        _votingstart,\n                        _votingfinis,\n                        nonce\n                    )\n                )\n            );\n        address _ownerAddress = recoverSigner(message, signature);\n        require(_ownerAddress == adminAddress);\n        votingtimedata = VotingTimeData(\n            _registerstart,\n            _registerfinis,\n            _votingstart,\n            _votingfinis\n        );\n        emit VotingTime(\n            _registerstart,\n            _registerfinis,\n            _votingstart,\n            _votingfinis,\n            _ownerAddress\n        );\n    }\n\n    function KandidatRegister(\n        uint256 _kandidatID,\n        uint256 nonce,\n        uint256 _livetime,\n        bytes32 _kandidatName,\n        bytes memory signature\n    ) public onlyRegisterStart(_livetime) {\n        bytes32 message =\n            prefixed(\n                keccak256(abi.encodePacked(_kandidatID, _kandidatName, nonce))\n            );\n        address _ownerAddress = recoverSigner(message, signature);\n        require(_ownerAddress == adminAddress);\n        kandidat.push(\n            KandidatData({\n                kandidatID: _kandidatID,\n                totalVote: 0,\n                kandidatName: _kandidatName\n            })\n        );\n        emit RegisterKandidat(_kandidatID, 0, _kandidatName, _ownerAddress);\n    }\n\n    function PemilihRegister(\n        address _pemilihAddress,\n        uint256 nonce,\n        uint256 _livetime,\n        bytes memory signature\n    ) public onlyRegisterStart(_livetime) {\n        bytes32 message =\n            prefixed(keccak256(abi.encodePacked(_pemilihAddress, nonce)));\n        address _ownerAddress = recoverSigner(message, signature);\n        require(_ownerAddress == adminAddress);\n        require(\n            !pemilihData[_pemilihAddress].votingStatus,\n            \"Pemilih telah memberikan suara\"\n        );\n        require(\n            pemilihData[_pemilihAddress].hakPilih == 0,\n            \"Pemilih telah memiliki hak pilih\"\n        );\n        pemilihData[_pemilihAddress].hakPilih = 1;\n        pemilihData[_pemilihAddress].votingStatus = false;\n        emit RegisterPemilih(_pemilihAddress, 1, false, _ownerAddress);\n    }\n\n    function Voting(\n        uint256 _kandidatID,\n        uint256 nonce,\n        uint256 _livetime,\n        bytes memory signature\n    ) public onlyRegisterFinis(_livetime) onlyVotingStart(_livetime) {\n        bytes32 message =\n            prefixed(keccak256(abi.encodePacked(_kandidatID, nonce)));\n        address voterAddress = recoverSigner(message, signature);\n        PemilihData memory pemilih = pemilihData[voterAddress];\n        require(!pemilih.votingStatus, \"Pemilih sudah menggunakan hak pilih\");\n        require(pemilih.hakPilih != 0, \"Pemilih tidak memiliki hak pilih\");\n        pemilih.votingStatus = true;\n        pemilih.kandidatPilihan = _kandidatID;\n        uint256 kandidatIndex = _kandidatID - 1;\n        kandidat[kandidatIndex].totalVote += pemilih.hakPilih;\n        emit Voted(voterAddress, _kandidatID, true);\n    }\n\n    function _HitungTotalSuara() internal view returns (uint256 totalSuara_) {\n        uint256 totalSuaraKandidat = 0;\n        for (uint256 p = 0; p < kandidat.length; p++) {\n            if (kandidat[p].totalVote > totalSuaraKandidat) {\n                totalSuaraKandidat = kandidat[p].totalVote;\n                totalSuara_ = p;\n            }\n        }\n    }\n\n    function KandidatTerpilih(uint256 _livetime)\n        public\n        view\n        onlyRegisterFinis(_livetime)\n        onlyVotingFinis(_livetime)\n        returns (bytes32 kandidatName_)\n    {\n        kandidatName_ = kandidat[_HitungTotalSuara()].kandidatName;\n    }\n\n    function GetPemilihData(address _pemilihAddress)\n        public\n        view\n        returns (\n            uint256,\n            uint256,\n            bool\n        )\n    {\n        return (\n            pemilihData[_pemilihAddress].hakPilih,\n            pemilihData[_pemilihAddress].kandidatPilihan,\n            pemilihData[_pemilihAddress].votingStatus\n        );\n    }\n\n    function GetVotingTimeData()\n        public\n        view\n        returns (\n            uint256,\n            uint256,\n            uint256,\n            uint256\n        )\n    {\n        return (\n            votingtimedata.registerstart,\n            votingtimedata.registerfinis,\n            votingtimedata.votingstart,\n            votingtimedata.votingfinis\n        );\n    }\n\n    function GetTotalKandidat() public view returns(uint256) {\n        return kandidat.length;\n    }\n\n    function GetKandidatData(uint256 kandidatIndex) public view returns(uint256, uint256, bytes32) {\n        return (kandidat[kandidatIndex].kandidatID, kandidat[kandidatIndex].totalVote, kandidat[kandidatIndex].kandidatName);\n    }\n\n    // Handle signature data\n    function splitSignature(bytes memory signature)\n        internal\n        pure\n        returns (\n            uint8 v,\n            bytes32 r,\n            bytes32 s\n        )\n    {\n        require(signature.length == 65);\n        assembly {\n            r := mload(add(signature, 32))\n            s := mload(add(signature, 64))\n            v := byte(0, mload(add(signature, 96)))\n        }\n        return (v, r, s);\n    }\n\n    function recoverSigner(bytes32 message, bytes memory signature)\n        internal\n        pure\n        returns (address)\n    {\n        (uint8 v, bytes32 r, bytes32 s) = splitSignature(signature);\n        return ecrecover(message, v, r, s);\n    }\n\n    function prefixed(bytes32 hash) internal pure returns (bytes32) {\n        return\n            keccak256(\n                abi.encodePacked(\"\\x19Ethereum Signed Message:\\n32\", hash)\n            );\n    }\n}\n",
  "sourcePath": "/home/yafiabiyyu/Documents/Project/SKRIPSI/vote2block-smart-contract-javascript/contracts/Vote2Block.sol",
  "compiler": {
    "name": "solc",
    "version": "0.7.0+commit.9e61f92b.Emscripten.clang"
  },
  "schemaVersion": "3.3.3",
  "updatedAt": "2021-06-11T06:54:39.632Z",
  "networkType": "ethereum",
  "devdoc": {
    "kind": "dev",
    "methods": {},
    "version": 1
  },
  "userdoc": {
    "kind": "user",
    "methods": {},
    "version": 1
  }
}